{"abi":[{"type":"constructor","inputs":[],"stateMutability":"nonpayable"},{"type":"function","name":"UPGRADE_INTERFACE_VERSION","inputs":[],"outputs":[{"name":"","type":"string","internalType":"string"}],"stateMutability":"view"},{"type":"function","name":"addBook","inputs":[{"name":"bookId","type":"uint256","internalType":"uint256"},{"name":"nftId","type":"uint256","internalType":"uint256"},{"name":"toolIds","type":"uint256[3]","internalType":"uint256[3]"},{"name":"goldenTicketId","type":"uint256","internalType":"uint256"},{"name":"nftType","type":"string","internalType":"string"}],"outputs":[],"stateMutability":"nonpayable"},{"type":"function","name":"batchAddBooks","inputs":[{"name":"bookIds","type":"uint256[]","internalType":"uint256[]"},{"name":"nftIds","type":"uint256[]","internalType":"uint256[]"},{"name":"toolIds","type":"uint256[3][]","internalType":"uint256[3][]"},{"name":"goldenTicketIds","type":"uint256[]","internalType":"uint256[]"},{"name":"nftTypes","type":"string[]","internalType":"string[]"}],"outputs":[],"stateMutability":"nonpayable"},{"type":"function","name":"configurePayment","inputs":[{"name":"roundNumber","type":"uint256","internalType":"uint256"},{"name":"paymentType","type":"uint8","internalType":"enum KttyWorldMinting.PaymentType"},{"name":"nativeAmount","type":"uint256","internalType":"uint256"},{"name":"erc20Amount","type":"uint256","internalType":"uint256"}],"outputs":[],"stateMutability":"nonpayable"},{"type":"function","name":"configureRound","inputs":[{"name":"roundNumber","type":"uint256","internalType":"uint256"},{"name":"startTime","type":"uint256","internalType":"uint256"},{"name":"endTime","type":"uint256","internalType":"uint256"}],"outputs":[],"stateMutability":"nonpayable"},{"type":"function","name":"getAllRounds","inputs":[],"outputs":[{"name":"allRounds","type":"tuple[4]","internalType":"struct KttyWorldMinting.Round[4]","components":[{"name":"startTime","type":"uint256","internalType":"uint256"},{"name":"endTime","type":"uint256","internalType":"uint256"},{"name":"roundType","type":"uint8","internalType":"enum KttyWorldMinting.RoundType"},{"name":"active","type":"bool","internalType":"bool"},{"name":"nativeOnlyPayment","type":"tuple","internalType":"struct KttyWorldMinting.PaymentOption","components":[{"name":"nativeAmount","type":"uint256","internalType":"uint256"},{"name":"erc20Amount","type":"uint256","internalType":"uint256"}]},{"name":"hybridPayment","type":"tuple","internalType":"struct KttyWorldMinting.PaymentOption","components":[{"name":"nativeAmount","type":"uint256","internalType":"uint256"},{"name":"erc20Amount","type":"uint256","internalType":"uint256"}]}]}],"stateMutability":"view"},{"type":"function","name":"getBook","inputs":[{"name":"bookId","type":"uint256","internalType":"uint256"}],"outputs":[{"name":"","type":"tuple","internalType":"struct KttyWorldMinting.Book","components":[{"name":"nftId","type":"uint256","internalType":"uint256"},{"name":"toolIds","type":"uint256[3]","internalType":"uint256[3]"},{"name":"goldenTicketId","type":"uint256","internalType":"uint256"},{"name":"hasGoldenTicket","type":"bool","internalType":"bool"},{"name":"nftType","type":"string","internalType":"string"}]}],"stateMutability":"view"},{"type":"function","name":"getCurrentRound","inputs":[],"outputs":[{"name":"","type":"uint256","internalType":"uint256"}],"stateMutability":"view"},{"type":"function","name":"getPaymentConfig","inputs":[{"name":"roundNumber","type":"uint256","internalType":"uint256"}],"outputs":[{"name":"nativeOnly","type":"tuple","internalType":"struct KttyWorldMinting.PaymentOption","components":[{"name":"nativeAmount","type":"uint256","internalType":"uint256"},{"name":"erc20Amount","type":"uint256","internalType":"uint256"}]},{"name":"hybrid","type":"tuple","internalType":"struct KttyWorldMinting.PaymentOption","components":[{"name":"nativeAmount","type":"uint256","internalType":"uint256"},{"name":"erc20Amount","type":"uint256","internalType":"uint256"}]}],"stateMutability":"view"},{"type":"function","name":"getPoolAndBucketStatus","inputs":[],"outputs":[{"name":"pool1Length","type":"uint256","internalType":"uint256"},{"name":"pool1Remaining","type":"uint256","internalType":"uint256"},{"name":"pool2Length","type":"uint256","internalType":"uint256"},{"name":"pool2Remaining","type":"uint256","internalType":"uint256"},{"name":"currentBucket","type":"uint256","internalType":"uint256"},{"name":"bucketStats","type":"uint256[2][8]","internalType":"uint256[2][8]"}],"stateMutability":"view"},{"type":"function","name":"getRound","inputs":[{"name":"roundNumber","type":"uint256","internalType":"uint256"}],"outputs":[{"name":"","type":"tuple","internalType":"struct KttyWorldMinting.Round","components":[{"name":"startTime","type":"uint256","internalType":"uint256"},{"name":"endTime","type":"uint256","internalType":"uint256"},{"name":"roundType","type":"uint8","internalType":"enum KttyWorldMinting.RoundType"},{"name":"active","type":"bool","internalType":"bool"},{"name":"nativeOnlyPayment","type":"tuple","internalType":"struct KttyWorldMinting.PaymentOption","components":[{"name":"nativeAmount","type":"uint256","internalType":"uint256"},{"name":"erc20Amount","type":"uint256","internalType":"uint256"}]},{"name":"hybridPayment","type":"tuple","internalType":"struct KttyWorldMinting.PaymentOption","components":[{"name":"nativeAmount","type":"uint256","internalType":"uint256"},{"name":"erc20Amount","type":"uint256","internalType":"uint256"}]}]}],"stateMutability":"view"},{"type":"function","name":"getTopMintersLeaderboard","inputs":[],"outputs":[{"name":"wallets","type":"address[]","internalType":"address[]"},{"name":"mints","type":"uint256[]","internalType":"uint256[]"}],"stateMutability":"view"},{"type":"function","name":"getTotalUniqueMinters","inputs":[],"outputs":[{"name":"","type":"uint256","internalType":"uint256"}],"stateMutability":"view"},{"type":"function","name":"getUserBooks","inputs":[{"name":"user","type":"address","internalType":"address"}],"outputs":[{"name":"","type":"uint256[]","internalType":"uint256[]"}],"stateMutability":"view"},{"type":"function","name":"getUserBooksDetails","inputs":[{"name":"user","type":"address","internalType":"address"}],"outputs":[{"name":"","type":"tuple[]","internalType":"struct KttyWorldMinting.Book[]","components":[{"name":"nftId","type":"uint256","internalType":"uint256"},{"name":"toolIds","type":"uint256[3]","internalType":"uint256[3]"},{"name":"goldenTicketId","type":"uint256","internalType":"uint256"},{"name":"hasGoldenTicket","type":"bool","internalType":"bool"},{"name":"nftType","type":"string","internalType":"string"}]}],"stateMutability":"view"},{"type":"function","name":"getUserTotalMints","inputs":[{"name":"user","type":"address","internalType":"address"}],"outputs":[{"name":"","type":"uint256","internalType":"uint256"}],"stateMutability":"view"},{"type":"function","name":"getWhitelistStatus","inputs":[{"name":"round","type":"uint256","internalType":"uint256"},{"name":"user","type":"address","internalType":"address"}],"outputs":[{"name":"allowance","type":"uint256","internalType":"uint256"},{"name":"minted","type":"uint256","internalType":"uint256"}],"stateMutability":"view"},{"type":"function","name":"initialize","inputs":[{"name":"_owner","type":"address","internalType":"address"},{"name":"_companions","type":"address","internalType":"address"},{"name":"_tools","type":"address","internalType":"address"},{"name":"_collectibles","type":"address","internalType":"address"},{"name":"_kttyToken","type":"address","internalType":"address"},{"name":"_treasuryWallet","type":"address","internalType":"address"},{"name":"_maxMintPerTransaction","type":"uint256","internalType":"uint256"}],"outputs":[],"stateMutability":"nonpayable"},{"type":"function","name":"isBookOpened","inputs":[{"name":"bookId","type":"uint256","internalType":"uint256"}],"outputs":[{"name":"","type":"bool","internalType":"bool"}],"stateMutability":"view"},{"type":"function","name":"isWhitelistedForRound3","inputs":[{"name":"user","type":"address","internalType":"address"},{"name":"proof","type":"bytes32[]","internalType":"bytes32[]"}],"outputs":[{"name":"","type":"bool","internalType":"bool"}],"stateMutability":"view"},{"type":"function","name":"loadBucket","inputs":[{"name":"bucketIndex","type":"uint256","internalType":"uint256"},{"name":"bookIds","type":"uint256[]","internalType":"uint256[]"},{"name":"nullCount","type":"uint256","internalType":"uint256"},{"name":"oneOfOneCount","type":"uint256","internalType":"uint256"},{"name":"goldenTicketCount","type":"uint256","internalType":"uint256"},{"name":"basicCount","type":"uint256","internalType":"uint256"}],"outputs":[],"stateMutability":"nonpayable"},{"type":"function","name":"loadPool1","inputs":[{"name":"bookIds","type":"uint256[]","internalType":"uint256[]"}],"outputs":[],"stateMutability":"nonpayable"},{"type":"function","name":"loadPool2","inputs":[{"name":"bookIds","type":"uint256[]","internalType":"uint256[]"}],"outputs":[],"stateMutability":"nonpayable"},{"type":"function","name":"manualAirdrop","inputs":[{"name":"tokenIds","type":"uint256[]","internalType":"uint256[]"},{"name":"recipient","type":"address","internalType":"address"}],"outputs":[],"stateMutability":"nonpayable"},{"type":"function","name":"mint","inputs":[{"name":"quantity","type":"uint256","internalType":"uint256"},{"name":"paymentType","type":"uint8","internalType":"enum KttyWorldMinting.PaymentType"},{"name":"merkleProof","type":"bytes32[]","internalType":"bytes32[]"}],"outputs":[],"stateMutability":"payable"},{"type":"function","name":"onERC1155BatchReceived","inputs":[{"name":"","type":"address","internalType":"address"},{"name":"","type":"address","internalType":"address"},{"name":"","type":"uint256[]","internalType":"uint256[]"},{"name":"","type":"uint256[]","internalType":"uint256[]"},{"name":"","type":"bytes","internalType":"bytes"}],"outputs":[{"name":"","type":"bytes4","internalType":"bytes4"}],"stateMutability":"pure"},{"type":"function","name":"onERC1155Received","inputs":[{"name":"","type":"address","internalType":"address"},{"name":"","type":"address","internalType":"address"},{"name":"","type":"uint256","internalType":"uint256"},{"name":"","type":"uint256","internalType":"uint256"},{"name":"","type":"bytes","internalType":"bytes"}],"outputs":[{"name":"","type":"bytes4","internalType":"bytes4"}],"stateMutability":"pure"},{"type":"function","name":"openBook","inputs":[{"name":"bookId","type":"uint256","internalType":"uint256"}],"outputs":[],"stateMutability":"nonpayable"},{"type":"function","name":"owner","inputs":[],"outputs":[{"name":"","type":"address","internalType":"address"}],"stateMutability":"view"},{"type":"function","name":"proxiableUUID","inputs":[],"outputs":[{"name":"","type":"bytes32","internalType":"bytes32"}],"stateMutability":"view"},{"type":"function","name":"renounceOwnership","inputs":[],"outputs":[],"stateMutability":"nonpayable"},{"type":"function","name":"setMaxMintPerTransaction","inputs":[{"name":"maxMint","type":"uint256","internalType":"uint256"}],"outputs":[],"stateMutability":"nonpayable"},{"type":"function","name":"setRound3MerkleRoot","inputs":[{"name":"merkleRoot","type":"bytes32","internalType":"bytes32"}],"outputs":[],"stateMutability":"nonpayable"},{"type":"function","name":"setTreasuryWallet","inputs":[{"name":"newWallet","type":"address","internalType":"address"}],"outputs":[],"stateMutability":"nonpayable"},{"type":"function","name":"setWhitelistAllowances","inputs":[{"name":"round","type":"uint256","internalType":"uint256"},{"name":"users","type":"address[]","internalType":"address[]"},{"name":"allowances","type":"uint256[]","internalType":"uint256[]"}],"outputs":[],"stateMutability":"nonpayable"},{"type":"function","name":"supportsInterface","inputs":[{"name":"interfaceId","type":"bytes4","internalType":"bytes4"}],"outputs":[{"name":"","type":"bool","internalType":"bool"}],"stateMutability":"view"},{"type":"function","name":"transferOwnership","inputs":[{"name":"newOwner","type":"address","internalType":"address"}],"outputs":[],"stateMutability":"nonpayable"},{"type":"function","name":"upgradeToAndCall","inputs":[{"name":"newImplementation","type":"address","internalType":"address"},{"name":"data","type":"bytes","internalType":"bytes"}],"outputs":[],"stateMutability":"payable"},{"type":"event","name":"BookAdded","inputs":[{"name":"bookId","type":"uint256","indexed":true,"internalType":"uint256"},{"name":"nftId","type":"uint256","indexed":false,"internalType":"uint256"},{"name":"toolIds","type":"uint256[3]","indexed":false,"internalType":"uint256[3]"},{"name":"goldenTicketId","type":"uint256","indexed":false,"internalType":"uint256"}],"anonymous":false},{"type":"event","name":"BookOpened","inputs":[{"name":"bookId","type":"uint256","indexed":true,"internalType":"uint256"},{"name":"owner","type":"address","indexed":true,"internalType":"address"}],"anonymous":false},{"type":"event","name":"BooksMinted","inputs":[{"name":"bookIds","type":"uint256[]","indexed":false,"internalType":"uint256[]"},{"name":"buyer","type":"address","indexed":true,"internalType":"address"}],"anonymous":false},{"type":"event","name":"BucketLoaded","inputs":[{"name":"bucketIndex","type":"uint256","indexed":true,"internalType":"uint256"},{"name":"bookCount","type":"uint256","indexed":false,"internalType":"uint256"}],"anonymous":false},{"type":"event","name":"Initialized","inputs":[{"name":"version","type":"uint64","indexed":false,"internalType":"uint64"}],"anonymous":false},{"type":"event","name":"MinterStatsUpdated","inputs":[{"name":"user","type":"address","indexed":true,"internalType":"address"},{"name":"totalMints","type":"uint256","indexed":false,"internalType":"uint256"}],"anonymous":false},{"type":"event","name":"OwnershipTransferred","inputs":[{"name":"previousOwner","type":"address","indexed":true,"internalType":"address"},{"name":"newOwner","type":"address","indexed":true,"internalType":"address"}],"anonymous":false},{"type":"event","name":"PaymentConfigured","inputs":[{"name":"roundNumber","type":"uint256","indexed":true,"internalType":"uint256"},{"name":"paymentType","type":"uint8","indexed":false,"internalType":"enum KttyWorldMinting.PaymentType"},{"name":"nativeAmount","type":"uint256","indexed":false,"internalType":"uint256"},{"name":"erc20Amount","type":"uint256","indexed":false,"internalType":"uint256"}],"anonymous":false},{"type":"event","name":"PoolLoaded","inputs":[{"name":"poolNumber","type":"uint256","indexed":true,"internalType":"uint256"},{"name":"bookCount","type":"uint256","indexed":false,"internalType":"uint256"}],"anonymous":false},{"type":"event","name":"RoundUpdated","inputs":[{"name":"roundNumber","type":"uint256","indexed":true,"internalType":"uint256"},{"name":"startTime","type":"uint256","indexed":false,"internalType":"uint256"},{"name":"endTime","type":"uint256","indexed":false,"internalType":"uint256"}],"anonymous":false},{"type":"event","name":"TreasuryWalletUpdated","inputs":[{"name":"newWallet","type":"address","indexed":true,"internalType":"address"}],"anonymous":false},{"type":"event","name":"Upgraded","inputs":[{"name":"implementation","type":"address","indexed":true,"internalType":"address"}],"anonymous":false},{"type":"error","name":"AddressEmptyCode","inputs":[{"name":"target","type":"address","internalType":"address"}]},{"type":"error","name":"BookAlreadyOpened","inputs":[]},{"type":"error","name":"BookNotOwned","inputs":[]},{"type":"error","name":"ERC1967InvalidImplementation","inputs":[{"name":"implementation","type":"address","internalType":"address"}]},{"type":"error","name":"ERC1967NonPayable","inputs":[]},{"type":"error","name":"FailedCall","inputs":[]},{"type":"error","name":"InsufficientAllowance","inputs":[]},{"type":"error","name":"InsufficientPayment","inputs":[]},{"type":"error","name":"InvalidArrayLength","inputs":[]},{"type":"error","name":"InvalidInitialization","inputs":[]},{"type":"error","name":"InvalidPaymentType","inputs":[]},{"type":"error","name":"InvalidProof","inputs":[]},{"type":"error","name":"InvalidRound","inputs":[]},{"type":"error","name":"MaxMintExceeded","inputs":[]},{"type":"error","name":"NotInitializing","inputs":[]},{"type":"error","name":"OwnableInvalidOwner","inputs":[{"name":"owner","type":"address","internalType":"address"}]},{"type":"error","name":"OwnableUnauthorizedAccount","inputs":[{"name":"account","type":"address","internalType":"address"}]},{"type":"error","name":"PoolExhausted","inputs":[]},{"type":"error","name":"ReentrancyGuardReentrantCall","inputs":[]},{"type":"error","name":"RoundNotActive","inputs":[]},{"type":"error","name":"TransferFailed","inputs":[]},{"type":"error","name":"UUPSUnauthorizedCallContext","inputs":[]},{"type":"error","name":"UUPSUnsupportedProxiableUUID","inputs":[{"name":"slot","type":"bytes32","internalType":"bytes32"}]}],"bytecode":{"object":"0x60a08060405234620000d157306080527ff0c57e16840df040f15088dc2f81fe391c3923bec73e23a9662efc9c229c6a009081549060ff8260401c16620000c257506001600160401b036002600160401b0319828216016200007c575b604051613fdd9081620000d6823960805181818161228801526123410152f35b6001600160401b031990911681179091556040519081527fc7f505b2f371ae2175ee4913f4499e1f2633a7b5936321eed1cdaeb6115181d290602090a15f80806200005c565b63f92ee8a960e01b8152600490fd5b5f80fdfe6080806040526004361015610012575f80fd5b5f3560e01c90816301ffc9a714612fa65750806308fd0e5114612f585780631460e39014612a165780632c547fab146128e05780632e52670c146127ad5780632e6cebe51461276d5780632f1d5a8c1461259257806338c80fc3146124f65780634f1ef286146122f257806352d1902d1461227657806354eba19214611e0c57806368fb42db14611d9657806369afc11114611b31578063715018a614611aca57806374210461146114f05780637f153e69146113f95780638362bede146113855780638725d976146112ea5780638da5cb5b146112b65780638f1327c014611251578063a32bf5971461122f578063a8602fea146111b8578063ad3cb1cc14611173578063b1eb5a5014611147578063b440da2f146110a2578063b5d560aa14610f6c578063bc197c8114610ee1578063bdc2bde314610aea578063c622969814610a3f578063d705adde14610870578063d741b61514610621578063d8180f0f1461051d578063e0ff5b8b146103c5578063e5066bbf146102bf578063f23a6e6114610269578063f2fde38b1461023e578063f98fcec7146101fe5763ffd4b036146101be575f80fd5b346101fa575f3660031901126101fa5760207f7d8c6f4e3a9b5c8f2e1a7d4c9f6e3a0b5c8f2e1a7d4c9f6e3a0b5c8f2e1a7d5054604051908152f35b5f80fd5b346101fa5760203660031901126101fa57610217613950565b6004357f7d8c6f4e3a9b5c8f2e1a7d4c9f6e3a0b5c8f2e1a7d4c9f6e3a0b5c8f2e1a7d4e55005b346101fa5760203660031901126101fa5761026761025a612ff9565b610262613950565b6138df565b005b346101fa5760a03660031901126101fa57610282612ff9565b5061028b61300f565b506084356001600160401b0381116101fa576102ab90369060040161328d565b505060405163f23a6e6160e01b8152602090f35b346101fa575f3660031901126101fa5760405160808082018281106001600160401b038211176103b1576040525f5b81811061039c57600183815b60048111156103375750604051905f825b600482106103195761040084f35b60206101008261032b88948751613234565b0193019101909161030b565b805f525f80516020613de883398151915260205260405f20905f19810191818311610388576103839261036c61037d9261379c565b61037682876138ce565b52846138ce565b506137fd565b6102fa565b634e487b7160e01b5f52601160045260245ffd5b6020906103a7613719565b81850152016102ee565b634e487b7160e01b5f52604160045260245ffd5b346101fa576020806003193601126101fa576103df613413565b506004355f525f80516020613e88833981519152815260405f2090604051916104078361308b565b80548352604051600191908282015f8486845b600384106105075750889160068787610432816130b9565b848601526004810154604086015260ff600582015416151560608601520160405180925f90835493610463856133c4565b94858552876001821691825f146104e55750506001146104a9575b505061048c925003826130ef565b60808301526104a56040519282849384528301906131d2565b0390f35b8692505f52815f20905f915b8583106104cd57505061048c9350820101868061047e565b805483880185015286945087939092019181016104b5565b925093505061048c94915060ff191682840152151560051b820101868061047e565b908291855481520193019101909186869161041a565b346101fa5760603660031901126101fa576001600160401b036004356024358281116101fa57610551903690600401613025565b9190926044359081116101fa5761056c903690600401613025565b939092610577613950565b600194600184141580610616575b610604578082036101fa575f5b82811061059b57005b6105a68183886133a4565b3590855f526020917f7d8c6f4e3a9b5c8f2e1a7d4c9f6e3a0b5c8f2e1a7d4c9f6e3a0b5c8f2e1a7d4c835260405f206105e08387896133a4565b356001600160a01b03811694908590036101fa578a945f525260405f205501610592565b6040516328ad4a9560e21b8152600490fd5b506002841415610585565b346101fa5760e03660031901126101fa5760043560243560a43660a4116101fa5760a435906001600160401b039060c4358281116101fa5761066790369060040161328d565b610672939193613950565b6040519061067f8261308b565b8682526040519361068f856130b9565b6044855b828210610860575050506020948583019485526106c2604084019188835260608501938915158552369161312b565b9460808401958652895f525f80516020613e88833981519152875260405f2093518455515f5b6003811061084b5750506006929161071891516004840155511515600583019060ff801983541691151516179055565b01915180519182116103b15761072e83546133c4565b601f8111610812575b508390601f8311600114610798579360a09593836060946044945f80516020613ec88339815191529a985f9261078d575b50508160011b915f199060031b1c19161790555b6040519485528401376080820152a2005b015190508b80610768565b90601f19831691845f52855f20925f5b8181106107fb5750846044945f80516020613ec88339815191529a989460a09a9894606098600195106107e3575b505050811b01905561077c565b01515f1960f88460031b161c191690558b80806107d6565b9293876001819287860151815501950193016107a8565b61083b90845f52855f20601f850160051c810191878610610841575b601f0160051c01906132cd565b87610737565b909150819061082e565b600190888351930192828288010155016106e8565b8135815260209182019101610693565b346101fa5760c03660031901126101fa576001600160401b036004356024358281116101fa576108a4903690600401613025565b6108ac613950565b60088310156106045760405160e08101818110868211176103b1576040526108d3826133fc565b6108e060405191826130ef565b8281526020938482018460051b8201913683116101fa578690915b838310610a2f575050505081528281015f8152604082015f81526060830160443581526080840191606435835260a0850193608435855260c086019960a4358b526109458a6132f0565b979097610a1c575180519182116103b157600160401b82116103b15789908854838a55808410610a01575b5001875f52895f205f5b8381106109ef5750505050916109d07f2b8b17e8a131269fdf34c60b6822a764014dfb196354965b1aef09bbaebd545b999a949260069694516001890155511515600288019060ff801983541691151516179055565b51600386015551600485015551600584015551910155604051908152a2005b825182820155918b019160010161097a565b610a16908a5f5284845f2091820191016132cd565b8d610970565b634e487b7160e01b5f525f60045260245ffd5b82358152918101918791016108fb565b346101fa576020806003193601126101fa576004355f82604051610a6281613055565b82815201525f82604051610a7581613055565b828152015280158015610ae0575b61060457608091815f525f80516020613de8833981519152808252610aad600360405f200161377e565b925f528152610ac1600560405f200161377e565b8160405193805185520151828401528051604084015201516060820152f35b5060048111610a83565b346101fa576020806003193601126101fa57600435610b07613988565b5f8181527f7d8c6f4e3a9b5c8f2e1a7d4c9f6e3a0b5c8f2e1a7d4c9f6e3a0b5c8f2e1a7d4a835260409020546001600160a01b03929083163303610ecf57815f527f7d8c6f4e3a9b5c8f2e1a7d4c9f6e3a0b5c8f2e1a7d4c9f6e3a0b5c8f2e1a7d4b80825260ff60405f205416610ebd57825f52815260405f209260019360ff199085828254161790555f80516020613e88833981519152835260405f2090604051610bb28161308b565b8254815260405190878401885f88855b60038310610ea9575050505050610bd8826130b9565b8581019182528760048501549660408301978852600594600660ff6005890154169760608601981515895201906040519384925f92815490610c19826133c4565b808752938216918215610e8b575050600114610e4e575b5050610c3e925003826130ef565b6080820152847f7d8c6f4e3a9b5c8f2e1a7d4c9f6e3a0b5c8f2e1a7d4c9f6e3a0b5c8f2e1a7d005416905190803b156101fa576040516323b872dd60e01b815230600482015233602482015260448101929092525f908290606490829084905af19081610e3f575b50610cbd576040516312171d8360e31b8152600490fd5b5f5b60038110610da45750505051610d09575b505033907fa6bada3e97386c4cb1b5c737f24e46af11bf755bd6d467fde7f4b0e152ec98395f80a35f80516020613f0883398151915255005b7f7d8c6f4e3a9b5c8f2e1a7d4c9f6e3a0b5c8f2e1a7d4c9f6e3a0b5c8f2e1a7d025416905190803b156101fa57604051637921219560e11b815230600482015233602482015260448101929092526001606483015260a060848301525f60a4830181905290829060c490829084905af18015610d9957610d8a575b80610cd0565b610d93906130a6565b82610d84565b6040513d5f823e3d90fd5b847f7d8c6f4e3a9b5c8f2e1a7d4c9f6e3a0b5c8f2e1a7d4c9f6e3a0b5c8f2e1a7d01541690825181851b015191803b156101fa57604051637921219560e11b815230600482015233602482015260448101939093526001606484015260a060848401525f60a4840181905290839060c490829084905af1918215610d99578992610e30575b5001610cbf565b610e39906130a6565b89610e29565b610e48906130a6565b88610ca6565b9091505f52825f20908c5f925b828410610e745750505091610c3e928201018c80610c30565b8054878501870152869450928501928e9101610e5b565b91509150610c3e9593501682840152151560051b8201018c80610c30565b8454815293830193918301918a9101610bc2565b6040516360add19160e11b8152600490fd5b604051635318accb60e01b8152600490fd5b346101fa5760a03660031901126101fa57610efa612ff9565b50610f0361300f565b506001600160401b036044358181116101fa57610f24903690600401613025565b50506064358181116101fa57610f3e903690600401613025565b50506084359081116101fa57610f5890369060040161328d565b505060405163bc197c8160e01b8152602090f35b346101fa5760803660031901126101fa5760043560243560028110156101fa5760443590606435610f9b613950565b83158015611098575b610604575f908261103b57604051610fbb81613055565b8481526004602082015f8152875f525f80516020613de883398151915260205260405f2092516003840155519101555b60405191611027577f8f341ec4552989b9bb68741eb1b467f541104020a4ec362d766861889b88d4f893606093835260208301526040820152a2005b634e487b7160e01b5f52602160045260245ffd5b5f9150600183036110865760405161105281613055565b848152600660208201838152875f525f80516020613de883398151915260205260405f209251600584015551910155610feb565b604051630e5525c360e31b8152600490fd5b5060048411610fa4565b346101fa5760403660031901126101fa576110bb612ff9565b6024356001600160401b0381116101fa576020916111386110e361113d933690600401613025565b919092604051868101916001600160601b03199060601b1682526014815261110a81613055565b519020927f7d8c6f4e3a9b5c8f2e1a7d4c9f6e3a0b5c8f2e1a7d4c9f6e3a0b5c8f2e1a7d4e54923691613880565b6139fb565b6040519015158152f35b346101fa5760203660031901126101fa57602061116a611165612ff9565b61336c565b54604051908152f35b346101fa575f3660031901126101fa576104a560405161119281613055565b60058152640352e302e360dc1b6020820152604051918291602083526020830190613194565b346101fa5760203660031901126101fa576111d1612ff9565b6111d9613950565b5f80516020613ee883398151915280546001600160a01b0319166001600160a01b0383161790556001600160a01b03167f97c79b3848e51f57983ac89e4403452655c8d83ceba8199011de63a74f60d1a75f80a2005b346101fa575f3660031901126101fa57602061124961380b565b604051908152f35b346101fa5760203660031901126101fa5760043561126d613719565b50801580156112ac575b610604575f525f80516020613de883398151915260205261010061129d60405f2061379c565b6112aa6040518092613234565bf35b5060048111611277565b346101fa575f3660031901126101fa575f80516020613e68833981519152546040516001600160a01b039091168152602090f35b346101fa5760603660031901126101fa5760043560243560443561130c613950565b8215801561137b575b610604577f717f6028ca251059c1372c3af54bbf4541e12df136c99141422b0d34457b715c91604091845f525f80516020613de88339815191526020526002835f208381558260018201550161010061ff001982541617905582519182526020820152a2005b5060048311611315565b346101fa575f3660031901126101fa5761139d61349f565b906040518092604082019060408352835180925260608301916020809501945f5b8281106113d95785806104a587878382036020850152613161565b86516001600160a01b0316855295810195879550938101936001016113be565b346101fa5760403660031901126101fa576004356001600160401b0381116101fa57611429903690600401613025565b9061143261300f565b61143a613950565b5f5b83811061144557005b7f7d8c6f4e3a9b5c8f2e1a7d4c9f6e3a0b5c8f2e1a7d4c9f6e3a0b5c8f2e1a7d00546001600160a01b031661147b8286866133a4565b3590803b156101fa576040516323b872dd60e01b81523060048201526001600160a01b038516602482015260448101929092525f908290606490829084905af190816114e1575b506114d9576040516312171d8360e31b8152600490fd5b60010161143c565b6114ea906130a6565b856114c2565b60603660031901126101fa57600435602480359160028310156101fa576044356001600160401b0381116101fa5761152c903690600401613025565b611537929192613988565b81158015611aa0575b611a8e5761154c61380b565b928361156457604051633df07da560e01b8152600490fd5b600184148015611a84575b15611a34575050815f5260207f7d8c6f4e3a9b5c8f2e1a7d4c9f6e3a0b5c8f2e1a7d4c9f6e3a0b5c8f2e1a7d4c815260405f20335f52815260405f2054835f527f7d8c6f4e3a9b5c8f2e1a7d4c9f6e3a0b5c8f2e1a7d4c9f6e3a0b5c8f2e1a7d4d9081835260405f20335f52835260405f20548115611a2257846115f291613492565b11611a2257835f52815260405f2090335f525260405f20611614828254613492565b90555b6040519361162485613055565b5f808652602095860152806119f45750815f525f80516020613de88339815191528452611656600360405f200161377e565b61166e82866116668285516132ba565b9301516132ba565b8134106119e2578581611929575b5050806118ec575b8034116118b5575b5061169681613460565b915f5b828110611898575050506116ac3361336c565b5415915f5b8251811015611765576116c333613334565b6116cd828561344c565b5190805490600160401b82101561175257816116f1916001809695940181556139e6565b819291549060031b91821b915f19901b1916179055611710818561344c565b515f527f7d8c6f4e3a9b5c8f2e1a7d4c9f6e3a0b5c8f2e1a7d4c9f6e3a0b5c8f2e1a7d4a865260405f20336001600160601b0360a01b825416179055016116b1565b84634e487b7160e01b5f5260416004525ffd5b505090815161177e6117763361336c565b918254613492565b9055611808575b6117f27ff3ce527104f286770f4fc87d4e89d9f74792ff875bbea7132eefb8339eaf5793916117b33361336c565b546040519081527f77dc9f4ab140b9972f1d60c3c217ec190c5f7afc24fdc86e2d66f72dfae015e1853392a26040519182918583523395830190613161565b0390a260015f80516020613f0883398151915255005b7f7d8c6f4e3a9b5c8f2e1a7d4c9f6e3a0b5c8f2e1a7d4c9f6e3a0b5c8f2e1a7d50805491600160401b8310156103b15760018301808355831015611884575f919091527f7729e7cab4341b4675e50c4987446200c8eefc4411de8aa9a787c68ac60582d290910180546001600160a01b03191633179055611785565b634e487b7160e01b5f52603260045260245ffd5b6001906118a483613a7a565b6118ae828761344c565b5201611699565b5f80806118c38194346132e3565b335af16118ce6139b7565b50156118da578461168c565b6040516312171d8360e31b8152600490fd5b5f8080808460018060a01b035f80516020613ee883398151915254165af16119126139b7565b50611684576040516312171d8360e31b8152600490fd5b7f7d8c6f4e3a9b5c8f2e1a7d4c9f6e3a0b5c8f2e1a7d4c9f6e3a0b5c8f2e1a7d03545f80516020613ee8833981519152546040516323b872dd60e01b81523360048201526001600160a01b0391821660248201526044810194909452839160649183915f91165af1908115610d99575f916119ac575b50156118da57858561167c565b90508581813d83116119db575b6119c381836130ef565b810103126101fa575180151581036101fa578661199f565b503d6119b9565b60405163cd1c886760e01b8152600490fd5b60010361108657815f525f80516020613de88339815191528452611a1d600560405f200161377e565b611656565b6040516313be252b60e01b8152600490fd5b60038414611a44575b5050611617565b611a669161113860405160208101903360601b82526014815261110a81613055565b15611a72578480611a3d565b6040516309bde33960e01b8152600490fd5b506002841461156f565b604051633ce95f8560e11b8152600490fd5b507f7d8c6f4e3a9b5c8f2e1a7d4c9f6e3a0b5c8f2e1a7d4c9f6e3a0b5c8f2e1a7d05548211611540565b346101fa575f3660031901126101fa57611ae2613950565b5f80516020613e6883398151915280546001600160a01b031981169091555f906001600160a01b03167f8be0079c531659141344cd1fd0a4f28419497f9722a3daafe3b4186f6b6457e08280a3005b346101fa576020806003193601126101fa57611b53611b4e612ff9565b613334565b6040518082848294549384815201905f52845f20925f5b86828210611d805784611b7f818603826130ef565b8051611ba3611b8d826133fc565b91611b9b60405193846130ef565b8083526133fc565b601f1901835f5b828110611d6a575050505f5b8251811015611d0d57611bc9818461344c565b515f525f80516020613e88833981519152845260405f2060405190611bed8261308b565b80548252600160405180828401835f925b8b60038510611cf9575050505050611c15816130b9565b878401526004820154604084015286600660059360ff8582015416151560608701520191604051935f938054611c4a816133c4565b80885292818516918215611cd2575050600114611c98575b5050505090611c7781600195949303826130ef565b6080820152611c86828561344c565b52611c91818461344c565b5001611bb6565b90919293505f52825f20915f925b828410611cbf5750505082010186826001611c77611c62565b8054868501860152928401928101611ca6565b60ff19168689015292151590921b8601909301935089925084915060019050611c77611c62565b829184548152019201920191908490611bfe565b6040805185815283518187018190525f92600582901b830181019186890191899085015b828710611d3e5785850386f35b909192938280611d5a600193603f198a820301865288516131d2565b9601920196019592919092611d31565b611d72613413565b828286010152018490611baa565b8554845260019586019587955093019201611b6a565b346101fa576020806003193601126101fa57611db3611b4e612ff9565b906040518083838295549384815201905f52835f20925f5b85828210611df657505050611de2925003836130ef565b6104a5604051928284938452830190613161565b8554845260019586019588955093019201611dcb565b346101fa5760a03660031901126101fa576004356001600160401b0381116101fa57611e3c903690600401613025565b906024356001600160401b0381116101fa57611e5c903690600401613025565b92604435936001600160401b0385116101fa57366023860112156101fa576001600160401b038560040135116101fa573660246060876004013502870101116101fa576064356001600160401b0381116101fa57611ebe903690600401613025565b9190926084356001600160401b0381116101fa57611ee0903690600401613025565b611eeb979197613950565b838314801590612268575b801561225e575b8015612254575b612242575f9796975b838110611f1657005b611f2181868b6133a4565b3590611f358160048d013560248e016133b4565b91611f4182898b6133a4565b35611f4d838a8c6133a4565b35151585841015611884578360051b8c0135601e198d3603018112156101fa578c01916001600160401b038335116101fa578235360360208401136101fa5760405193611f998561308b565b845260405195611fa8876130b9565b863660608301116101fa579d9e9d81905b6060830182106122325750505090611fea92916020850196875260408501526060840152369060208135910161312b565b6080820152611ffa8287876133a4565b355f525f80516020613e8883398151915260205260405f209281518455515f5b6003811061221c5750508060406080920151600485015561205060608201511515600586019060ff801983541691151516179055565b01519182516001600160401b0381116103b1578988888f93858f96918e9961207c60068e9501546133c4565b90601f918281116121e1575b50602091831160011461212c578a6120ef815f80516020613ec88339815191529b9960019f958260a09d9b60609b6121059b60068c859d6120e8976120ff9d5f92612121575b5050600182901b915f199060031b1c1916179101556133a4565b359d6133a4565b35976024816004013591016133b4565b946133a4565b359160405193845260208401376080820152a201979697611f0d565b015190505f806120ce565b90600684015f5260205f20915f5b601f19851681106121ae57506120ef8c5f80516020613ec88339815191529b9960019f958260a09d9b60609b6121059b60068c6120e8966120ff9c879f9c889d601f19811610612196575b505050600190811b019101556133a4565b01515f1960f88460031b161c191690555f8080612185565b9750600193999b9c506020955085949a508198508096500151815501940192018e958d9897958f958e958e958e9561213a565b61220d90600686015f5260205f208480870160051c82019260208810612213575b0160051c01906132cd565b5f612088565b92508192612202565b600190602083519301928282880101550161201a565b8135815260209182019101611fb9565b604051634ec4810560e11b8152600490fd5b5080831415611f04565b5084831415611efd565b508860040135831415611ef6565b346101fa575f3660031901126101fa577f00000000000000000000000000000000000000000000000000000000000000006001600160a01b031630036122e05760206040517f360894a13ba1a3210667c828492db98dca3e2076cc3735a920a3ca505d382bbc8152f35b60405163703e46dd60e11b8152600490fd5b60403660031901126101fa57612306612ff9565b6024356001600160401b0381116101fa57366023820112156101fa5761233690369060248160040135910161312b565b906001600160a01b037f000000000000000000000000000000000000000000000000000000000000000081163081149081156124c8575b506122e05761237a613950565b8116906040516352d1902d60e01b8152602081600481865afa5f9181612494575b506123b957604051634c9c8ce360e01b815260048101849052602490fd5b7f360894a13ba1a3210667c828492db98dca3e2076cc3735a920a3ca505d382bbc9291929081810361247c5750823b156124635780546001600160a01b03191682179055604051907fbc7cd75a20ee27fd9adebab32041f755214dbc6bffa90cc0225b39da2e5c2d3b5f80a282511561244a57505f8083602061026795519101845af46124446139b7565b91613d84565b9150503461245457005b63b398979f60e01b8152600490fd5b604051634c9c8ce360e01b815260048101839052602490fd5b60249060405190632a87526960e21b82526004820152fd5b9091506020813d6020116124c0575b816124b0602093836130ef565b810103126101fa5751908561239b565b3d91506124a3565b9050817f360894a13ba1a3210667c828492db98dca3e2076cc3735a920a3ca505d382bbc541614158461236d565b346101fa5760403660031901126101fa57604060043561251461300f565b815f527f7d8c6f4e3a9b5c8f2e1a7d4c9f6e3a0b5c8f2e1a7d4c9f6e3a0b5c8f2e1a7d4c602052825f209060018060a01b031690815f52602052825f2054915f527f7d8c6f4e3a9b5c8f2e1a7d4c9f6e3a0b5c8f2e1a7d4c9f6e3a0b5c8f2e1a7d4d602052825f20905f52602052815f205482519182526020820152f35b346101fa575f3660031901126101fa576040516101008082018281106001600160401b038211176103b1576040525f5b81811061274f57825f80516020613e4883398151915254905f80516020613e088339815191525460ff805f80516020613e2883398151915254165f14612731575f915b5f80516020613f288339815191525460ff1615612713575f905b5f80516020613f8883398151915254925f5b600881106126a7575050604051958652602093602087015260408601526060850152608084015260a083015f905b6008821061266d576102a085f35b82845182905f915b600283106126915750505060406001920194019101909261265f565b8151815286936001909301929182019101612675565b808260026126b66001946132f0565b50015416156126ed575f5b6126cb828a613323565b51526126d6816132f0565b505460206126e4838b613323565b51015201612631565b61270e6126f9826132f0565b505483612705846132f0565b500154906132e3565b6126c1565b61272b5f80516020613ea883398151915254826132e3565b9061261f565b6127495f80516020613f6883398151915254856132e3565b91612605565b60209060405161275e81613055565b604036823781850152016125c2565b346101fa5760203660031901126101fa57612786613950565b6004357f7d8c6f4e3a9b5c8f2e1a7d4c9f6e3a0b5c8f2e1a7d4c9f6e3a0b5c8f2e1a7d0555005b346101fa576020806003193601126101fa576001600160401b03906004358281116101fa576127e0903690600401613025565b926127e9613950565b83116103b157600160401b83116103b1575f80516020613e088339815191529081548483558085106128aa575b50905f525f5b8381106128785760027ff46dbf41bb9e0076f09f62efef0de3c3e5c98f866e6a8420a61fc07f01df50c86020865f5f80516020613ea8833981519152555f80516020613f2883398151915260ff198154169055604051908152a2005b81357f05d4073c27836ffd8c4d7bbb592262c524c1200a8c1843b3406275884aa452138201559082019060010161281c565b6128da90857f05d4073c27836ffd8c4d7bbb592262c524c1200a8c1843b3406275884aa4521391820191016132cd565b84612816565b346101fa576020806003193601126101fa576001600160401b03906004358281116101fa57612913903690600401613025565b91909261291e613950565b82116103b157600160401b82116103b1576001925f80516020613e488339815191529081548483558085106129e0575b50905f525f5b8381106129af57847ff46dbf41bb9e0076f09f62efef0de3c3e5c98f866e6a8420a61fc07f01df50c86020865f5f80516020613f68833981519152555f80516020613e2883398151915260ff198154169055604051908152a2005b81357f126df2fb1ad9af74e35b976c2aff4380679916cdcde7f58b7f0ae3ca933c241e820155908201908401612954565b612a1090857f126df2fb1ad9af74e35b976c2aff4380679916cdcde7f58b7f0ae3ca933c241e91820191016132cd565b8561294e565b346101fa5760e03660031901126101fa57612a2f612ff9565b612a3761300f565b906044356001600160a01b03818116918290036101fa576064358181168091036101fa57608435908282168092036101fa5760a4359383851685036101fa575f80516020613f4883398151915254966001600160401b03881680159081612f48575b6001149081612f3e575b159081612f35575b50612f2357612af1612bf49760016001600160401b03198b16175f80516020613f488339815191525560ff8a60401c1615612ef7575b612ae9613a4c565b610262613a4c565b612af9613a4c565b612b01613a4c565b612b09613a4c565b60015f80516020613f08833981519152556001600160601b0360a01b947f7d8c6f4e3a9b5c8f2e1a7d4c9f6e3a0b5c8f2e1a7d4c9f6e3a0b5c8f2e1a7d009116858254161790557f7d8c6f4e3a9b5c8f2e1a7d4c9f6e3a0b5c8f2e1a7d4c9f6e3a0b5c8f2e1a7d0190848254161790557f7d8c6f4e3a9b5c8f2e1a7d4c9f6e3a0b5c8f2e1a7d4c9f6e3a0b5c8f2e1a7d0290838254161790557f7d8c6f4e3a9b5c8f2e1a7d4c9f6e3a0b5c8f2e1a7d4c9f6e3a0b5c8f2e1a7d03918254161790555f80516020613ee88339815191529060018060a01b03166001600160601b0360a01b825416179055565b60c4357f7d8c6f4e3a9b5c8f2e1a7d4c9f6e3a0b5c8f2e1a7d4c9f6e3a0b5c8f2e1a7d05555f7f7d8c6f4e3a9b5c8f2e1a7d4c9f6e3a0b5c8f2e1a7d4c9f6e3a0b5c8f2e1a7d045560017f7d8c6f4e3a9b5c8f2e1a7d4c9f6e3a0b5c8f2e1a7d4c9f6e3a0b5c8f2e1a7d48555f80516020613e28833981519152600160ff198254161790555f80516020613f28833981519152600160ff19825416179055604051612c9e81613055565b5f81525f602082015260405190612cb482613055565b5f82525f602083015260405190612cca82613070565b42825260208201925f19845260408301915f835260016060850152608084015260a08301525f80525f80516020613de883398151915260205260405f2092825184555160018401555190600482101561102757600283018054606083015161ff0090151560081b1660ff9490941661ffff19909116179290921790915560069060209060a0908260808201518051600388015501516004860155015180516005850155015191015560015b6004811115612de35760ff8260401c1615612d8c57005b68ff0000000000000000195f80516020613f4883398151915254165f80516020613f48833981519152557fc7f505b2f371ae2175ee4913f4499e1f2633a7b5936321eed1cdaeb6115181d2602060405160018152a1005b60028111612edf576001905b604051612dfb81613055565b5f81525f602082015260405192612e1184613055565b5f84525f602085015260405193612e2785613070565b5f855260208501925f8452612e40604087019384613772565b5f6060870152608086015260a0850152825f525f80516020613de883398151915260205260405f20918451835551600183015551600481101561102757600282018054606086015161ff0090151560081b1660ff9390931661ffff1990911617919091179055612eda9260069060209060a090826080820151805160038801550151600486015501518051600585015501519101556137fd565b612d75565b60038103612ef05760025b90612def565b6003612eea565b68ffffffffffffffffff198a1668010000000000000001175f80516020613f4883398151915255612ae1565b60405163f92ee8a960e01b8152600490fd5b90501589612aab565b303b159150612aa3565b60408a901c60ff16159150612a99565b346101fa5760203660031901126101fa576004355f527f7d8c6f4e3a9b5c8f2e1a7d4c9f6e3a0b5c8f2e1a7d4c9f6e3a0b5c8f2e1a7d4b602052602060ff60405f2054166040519015158152f35b346101fa5760203660031901126101fa576004359063ffffffff60e01b82168092036101fa57602091630271189760e51b8114908115612fe8575b5015158152f35b6301ffc9a760e01b14905083612fe1565b600435906001600160a01b03821682036101fa57565b602435906001600160a01b03821682036101fa57565b9181601f840112156101fa578235916001600160401b0383116101fa576020808501948460051b0101116101fa57565b604081019081106001600160401b038211176103b157604052565b60c081019081106001600160401b038211176103b157604052565b60a081019081106001600160401b038211176103b157604052565b6001600160401b0381116103b157604052565b606081019081106001600160401b038211176103b157604052565b602081019081106001600160401b038211176103b157604052565b90601f801991011681019081106001600160401b038211176103b157604052565b6001600160401b0381116103b157601f01601f191660200190565b92919261313782613110565b9161314560405193846130ef565b8294818452818301116101fa578281602093845f960137010152565b9081518082526020808093019301915f5b828110613180575050505090565b835185529381019392810192600101613172565b91908251928382525f5b8481106131be575050825f602080949584010152601f8019910116010190565b60208183018101518483018201520161319e565b80518252602080820151905f8185015b6003821061321f57505050509060e0608083604061321c950151828501526060810151151560a08501520151918160c08201520190613194565b90565b828060019286518152019401910190926131e2565b805182526020810151602083015260408101519060048210156110275760a060209160e0936040860152606081015115156060860152826080820151805160808801520151828601520151805160c08501520151910152565b9181601f840112156101fa578235916001600160401b0383116101fa57602083818601950101116101fa57565b8181029291811591840414171561038857565b8181106132d8575050565b5f81556001016132cd565b9190820391821161038857565b6008811015611884576007027f7d8c6f4e3a9b5c8f2e1a7d4c9f6e3a0b5c8f2e1a7d4c9f6e3a0b5c8f2e1a7d0e01905f90565b9060088110156118845760051b0190565b6001600160a01b03165f9081527f7d8c6f4e3a9b5c8f2e1a7d4c9f6e3a0b5c8f2e1a7d4c9f6e3a0b5c8f2e1a7d496020526040902090565b6001600160a01b03165f9081527f7d8c6f4e3a9b5c8f2e1a7d4c9f6e3a0b5c8f2e1a7d4c9f6e3a0b5c8f2e1a7d4f6020526040902090565b91908110156118845760051b0190565b9190811015611884576060020190565b90600182811c921680156133f2575b60208310146133de57565b634e487b7160e01b5f52602260045260245ffd5b91607f16916133d3565b6001600160401b0381116103b15760051b60200190565b604051906134208261308b565b60606080835f8152604051613434816130b9565b8336823760208201525f60408201525f838201520152565b80518210156118845760209160051b010190565b9061346a826133fc565b61347760405191826130ef565b8281528092613488601f19916133fc565b0190602036910137565b9190820180921161038857565b7f7d8c6f4e3a9b5c8f2e1a7d4c9f6e3a0b5c8f2e1a7d4c9f6e3a0b5c8f2e1a7d5090815480156136ef5760058111156136e95760055b6134de81613460565b916134e882613460565b946040518080928483526020809301905f527f7729e7cab4341b4675e50c4987446200c8eefc4411de8aa9a787c68ac60582d2925f5b8681106136c9575050613533925003826130ef565b61353c82613460565b915f5b81811061369857505f5b8481106135595750505050509190565b806001808301808411610388575b84811061361f575050908181600193036135b6575b50818060a01b0361358d828661344c565b5116613599828961344c565b526135a4818661344c565b516135af828b61344c565b5201613549565b828060a01b03806135c7838861344c565b5116906135d4848861344c565b51166135e0838861344c565b526135eb838761344c565b526135f6818761344c565b519061360d613605848961344c565b51918861344c565b52613618828761344c565b525f61357c565b613629818861344c565b51613634848961344c565b51108015613651575b613649575b8101613567565b915081613642565b5061365c818861344c565b51613667848961344c565b5114801561363d57506001600160a01b0380613683838961344c565b511690613690858961344c565b51161161363d565b6001906136b76001600160a01b036136b0838761344c565b511661336c565b546136c2828761344c565b520161353f565b84546001600160a01b03168352600194850194869450928201920161351e565b806134d5565b5060405191506136fe826130d4565b5f82526040519161370e836130d4565b5f83525f3681379190565b6040519061372682613070565b815f81525f60208201525f60408201525f606082015260405161374881613055565b5f81525f6020820152608082015260a06040519161376583613055565b5f83525f60208401520152565b60048210156110275752565b9060405161378b81613055565b602060018294805484520154910152565b906040516137a981613070565b60a06137f860058395805485526001810154602086015260ff60028201546137d682821660408901613772565b60081c16151560608601526137ed6003820161377e565b60808601520161377e565b910152565b5f1981146103885760010190565b60015b600481111561381c57505f90565b805f5260205f80516020613de8833981519152815261383d60405f2061379c565b90606082015115159182613874575b82613866575b505061321c57613861906137fd565b61380e565b015142111590505f80613852565b8051421015925061384c565b929161388b826133fc565b9161389960405193846130ef565b829481845260208094019160051b81019283116101fa57905b8282106138bf5750505050565b813581529083019083016138b2565b9060048110156118845760051b0190565b6001600160a01b03908116908115613938575f80516020613e6883398151915280546001600160a01b031981168417909155167f8be0079c531659141344cd1fd0a4f28419497f9722a3daafe3b4186f6b6457e05f80a3565b604051631e4fbdf760e01b81525f6004820152602490fd5b5f80516020613e68833981519152546001600160a01b0316330361397057565b60405163118cdaa760e01b8152336004820152602490fd5b5f80516020613f0883398151915260028154146139a55760029055565b604051633ee5aeb560e01b8152600490fd5b3d156139e1573d906139c882613110565b916139d660405193846130ef565b82523d5f602084013e565b606090565b8054821015611884575f5260205f2001905f90565b929091905f915b8451831015613a4457613a15838661344c565b519081811015613a33575f52602052600160405f205b920191613a02565b905f52602052600160405f20613a2b565b915092501490565b60ff5f80516020613f488339815191525460401c1615613a6857565b604051631afcd79f60e31b8152600490fd5b60018103613a8b575061321c613ce3565b60028103613a9c575061321c613c28565b60038103613ae957505f80516020613e288339815191525460ff16613ac35761321c613ce3565b5f80516020613f288339815191525460ff16613ae15761321c613c28565b61321c613b20565b600414613b02576040516311a7ebfd60e31b8152600490fd5b5f80516020613e288339815191525460ff16613ac35761321c613ce3565b5f80516020613f88833981519152546008811080613c0b575b15613b6057613b4a613b5b916137fd565b5f80516020613f8883398151915255565b613b20565b505f80516020613f8883398151915280546008811015613bf957613b83906132f0565b506001810191825482541115613bd75750815491613bb7613bb1613ba785856139e6565b90549060031b1c90565b936137fd565b80915581541115613bc6575090565b600201805460ff1916600117905590565b613ae19250613bf36002613b4a9301600160ff19825416179055565b546137fd565b6040516311a7ebfd60e31b8152600490fd5b50613c236002613c1a836132f0565b50015460ff1690565b613b39565b5f80516020613f2883398151915280549060ff82168015613cbd575b613bf9575f80516020613ea8833981519152918254925f80516020613e088339815191529081549182861015611884575f52613ca3857f05d4073c27836ffd8c4d7bbb592262c524c1200a8c1843b3406275884aa452130154956137fd565b8091551015613cb157505090565b60ff1916600117905590565b505f80516020613ea8833981519152545f80516020613e08833981519152541115613c44565b5f80516020613e2883398151915280549060ff82168015613d5e575b613bf9575f80516020613f68833981519152918254925f80516020613e488339815191529081549182861015611884575f52613ca3857f126df2fb1ad9af74e35b976c2aff4380679916cdcde7f58b7f0ae3ca933c241e0154956137fd565b505f80516020613f68833981519152545f80516020613e48833981519152541115613cff565b90613dab5750805115613d9957602081519101fd5b60405163d6bda27560e01b8152600490fd5b81511580613dde575b613dbc575090565b604051639996b31560e01b81526001600160a01b039091166004820152602490fd5b50803b15613db456fe7d8c6f4e3a9b5c8f2e1a7d4c9f6e3a0b5c8f2e1a7d4c9f6e3a0b5c8f2e1a7d077d8c6f4e3a9b5c8f2e1a7d4c9f6e3a0b5c8f2e1a7d4c9f6e3a0b5c8f2e1a7d0b7d8c6f4e3a9b5c8f2e1a7d4c9f6e3a0b5c8f2e1a7d4c9f6e3a0b5c8f2e1a7d0a7d8c6f4e3a9b5c8f2e1a7d4c9f6e3a0b5c8f2e1a7d4c9f6e3a0b5c8f2e1a7d089016d09d72d40fdae2fd8ceac6b6234c7706214fd39c1cd1e609a0528c1993007d8c6f4e3a9b5c8f2e1a7d4c9f6e3a0b5c8f2e1a7d4c9f6e3a0b5c8f2e1a7d477d8c6f4e3a9b5c8f2e1a7d4c9f6e3a0b5c8f2e1a7d4c9f6e3a0b5c8f2e1a7d0cbf5d5e7d35a79255ba7e166e82be9a667c44b0af1749d05ca1100a70419187b77d8c6f4e3a9b5c8f2e1a7d4c9f6e3a0b5c8f2e1a7d4c9f6e3a0b5c8f2e1a7d069b779b17422d0df92223018b32b4d1fa46e071723d6817e2486d003becc55f007d8c6f4e3a9b5c8f2e1a7d4c9f6e3a0b5c8f2e1a7d4c9f6e3a0b5c8f2e1a7d0df0c57e16840df040f15088dc2f81fe391c3923bec73e23a9662efc9c229c6a007d8c6f4e3a9b5c8f2e1a7d4c9f6e3a0b5c8f2e1a7d4c9f6e3a0b5c8f2e1a7d097d8c6f4e3a9b5c8f2e1a7d4c9f6e3a0b5c8f2e1a7d4c9f6e3a0b5c8f2e1a7d46a2646970667358221220b39c3a0456d2f5c96e547f3d3d484161feb40225161444dadb0d94e7162dfb1064736f6c63430008160033","linkReferences":{}},"methodIdentifiers":{"UPGRADE_INTERFACE_VERSION()":"ad3cb1cc","addBook(uint256,uint256,uint256[3],uint256,string)":"d741b615","batchAddBooks(uint256[],uint256[],uint256[3][],uint256[],string[])":"54eba192","configurePayment(uint256,uint8,uint256,uint256)":"b5d560aa","configureRound(uint256,uint256,uint256)":"8725d976","getAllRounds()":"e5066bbf","getBook(uint256)":"e0ff5b8b","getCurrentRound()":"a32bf597","getPaymentConfig(uint256)":"c6229698","getPoolAndBucketStatus()":"2f1d5a8c","getRound(uint256)":"8f1327c0","getTopMintersLeaderboard()":"8362bede","getTotalUniqueMinters()":"ffd4b036","getUserBooks(address)":"68fb42db","getUserBooksDetails(address)":"69afc111","getUserTotalMints(address)":"b1eb5a50","getWhitelistStatus(uint256,address)":"38c80fc3","initialize(address,address,address,address,address,address,uint256)":"1460e390","isBookOpened(uint256)":"08fd0e51","isWhitelistedForRound3(address,bytes32[])":"b440da2f","loadBucket(uint256,uint256[],uint256,uint256,uint256,uint256)":"d705adde","loadPool1(uint256[])":"2c547fab","loadPool2(uint256[])":"2e52670c","manualAirdrop(uint256[],address)":"7f153e69","mint(uint256,uint8,bytes32[])":"74210461","onERC1155BatchReceived(address,address,uint256[],uint256[],bytes)":"bc197c81","onERC1155Received(address,address,uint256,uint256,bytes)":"f23a6e61","openBook(uint256)":"bdc2bde3","owner()":"8da5cb5b","proxiableUUID()":"52d1902d","renounceOwnership()":"715018a6","setMaxMintPerTransaction(uint256)":"2e6cebe5","setRound3MerkleRoot(bytes32)":"f98fcec7","setTreasuryWallet(address)":"a8602fea","setWhitelistAllowances(uint256,address[],uint256[])":"d8180f0f","supportsInterface(bytes4)":"01ffc9a7","transferOwnership(address)":"f2fde38b","upgradeToAndCall(address,bytes)":"4f1ef286"},"id":64}