{"abi":[{"type":"constructor","inputs":[],"stateMutability":"nonpayable"},{"type":"function","name":"UPGRADE_INTERFACE_VERSION","inputs":[],"outputs":[{"name":"","type":"string","internalType":"string"}],"stateMutability":"view"},{"type":"function","name":"configurePayment","inputs":[{"name":"roundNumber","type":"uint256","internalType":"uint256"},{"name":"paymentType","type":"uint8","internalType":"enum KttyWorldMinting.PaymentType"},{"name":"nativeAmount","type":"uint256","internalType":"uint256"},{"name":"erc20Amount","type":"uint256","internalType":"uint256"}],"outputs":[],"stateMutability":"nonpayable"},{"type":"function","name":"configureRound","inputs":[{"name":"roundNumber","type":"uint256","internalType":"uint256"},{"name":"startTime","type":"uint256","internalType":"uint256"},{"name":"endTime","type":"uint256","internalType":"uint256"}],"outputs":[],"stateMutability":"nonpayable"},{"type":"function","name":"distributeSpilloverToBuckets","inputs":[],"outputs":[],"stateMutability":"nonpayable"},{"type":"function","name":"getAllRounds","inputs":[],"outputs":[{"name":"allRounds","type":"tuple[4]","internalType":"struct KttyWorldMinting.Round[4]","components":[{"name":"startTime","type":"uint256","internalType":"uint256"},{"name":"endTime","type":"uint256","internalType":"uint256"},{"name":"roundType","type":"uint8","internalType":"enum KttyWorldMinting.RoundType"},{"name":"active","type":"bool","internalType":"bool"},{"name":"nativeOnlyPayment","type":"tuple","internalType":"struct KttyWorldMinting.PaymentOption","components":[{"name":"nativeAmount","type":"uint256","internalType":"uint256"},{"name":"erc20Amount","type":"uint256","internalType":"uint256"}]},{"name":"hybridPayment","type":"tuple","internalType":"struct KttyWorldMinting.PaymentOption","components":[{"name":"nativeAmount","type":"uint256","internalType":"uint256"},{"name":"erc20Amount","type":"uint256","internalType":"uint256"}]}]}],"stateMutability":"view"},{"type":"function","name":"getBook","inputs":[{"name":"bookId","type":"uint256","internalType":"uint256"}],"outputs":[{"name":"","type":"tuple","internalType":"struct DummyBooks.Book","components":[{"name":"nftId","type":"uint256","internalType":"uint256"},{"name":"toolIds","type":"uint256[3]","internalType":"uint256[3]"},{"name":"goldenTicketId","type":"uint256","internalType":"uint256"},{"name":"hasGoldenTicket","type":"bool","internalType":"bool"},{"name":"nftType","type":"string","internalType":"string"}]}],"stateMutability":"view"},{"type":"function","name":"getCurrentRound","inputs":[],"outputs":[{"name":"","type":"uint256","internalType":"uint256"}],"stateMutability":"view"},{"type":"function","name":"getPaymentConfig","inputs":[{"name":"roundNumber","type":"uint256","internalType":"uint256"}],"outputs":[{"name":"nativeOnly","type":"tuple","internalType":"struct KttyWorldMinting.PaymentOption","components":[{"name":"nativeAmount","type":"uint256","internalType":"uint256"},{"name":"erc20Amount","type":"uint256","internalType":"uint256"}]},{"name":"hybrid","type":"tuple","internalType":"struct KttyWorldMinting.PaymentOption","components":[{"name":"nativeAmount","type":"uint256","internalType":"uint256"},{"name":"erc20Amount","type":"uint256","internalType":"uint256"}]}],"stateMutability":"view"},{"type":"function","name":"getPoolAndBucketStatus","inputs":[],"outputs":[{"name":"pool1Length","type":"uint256","internalType":"uint256"},{"name":"pool1Remaining","type":"uint256","internalType":"uint256"},{"name":"pool2Length","type":"uint256","internalType":"uint256"},{"name":"pool2Remaining","type":"uint256","internalType":"uint256"},{"name":"currentBucket","type":"uint256","internalType":"uint256"},{"name":"bucketStats","type":"uint256[2][8]","internalType":"uint256[2][8]"}],"stateMutability":"view"},{"type":"function","name":"getRound","inputs":[{"name":"roundNumber","type":"uint256","internalType":"uint256"}],"outputs":[{"name":"","type":"tuple","internalType":"struct KttyWorldMinting.Round","components":[{"name":"startTime","type":"uint256","internalType":"uint256"},{"name":"endTime","type":"uint256","internalType":"uint256"},{"name":"roundType","type":"uint8","internalType":"enum KttyWorldMinting.RoundType"},{"name":"active","type":"bool","internalType":"bool"},{"name":"nativeOnlyPayment","type":"tuple","internalType":"struct KttyWorldMinting.PaymentOption","components":[{"name":"nativeAmount","type":"uint256","internalType":"uint256"},{"name":"erc20Amount","type":"uint256","internalType":"uint256"}]},{"name":"hybridPayment","type":"tuple","internalType":"struct KttyWorldMinting.PaymentOption","components":[{"name":"nativeAmount","type":"uint256","internalType":"uint256"},{"name":"erc20Amount","type":"uint256","internalType":"uint256"}]}]}],"stateMutability":"view"},{"type":"function","name":"getTopMintersLeaderboard","inputs":[],"outputs":[{"name":"wallets","type":"address[]","internalType":"address[]"},{"name":"mints","type":"uint256[]","internalType":"uint256[]"}],"stateMutability":"view"},{"type":"function","name":"getTotalUniqueMinters","inputs":[],"outputs":[{"name":"","type":"uint256","internalType":"uint256"}],"stateMutability":"view"},{"type":"function","name":"getUserBooks","inputs":[{"name":"user","type":"address","internalType":"address"}],"outputs":[{"name":"","type":"uint256[]","internalType":"uint256[]"}],"stateMutability":"view"},{"type":"function","name":"getUserBooksDetails","inputs":[{"name":"user","type":"address","internalType":"address"}],"outputs":[{"name":"","type":"tuple[]","internalType":"struct DummyBooks.Book[]","components":[{"name":"nftId","type":"uint256","internalType":"uint256"},{"name":"toolIds","type":"uint256[3]","internalType":"uint256[3]"},{"name":"goldenTicketId","type":"uint256","internalType":"uint256"},{"name":"hasGoldenTicket","type":"bool","internalType":"bool"},{"name":"nftType","type":"string","internalType":"string"}]}],"stateMutability":"view"},{"type":"function","name":"getUserTotalMints","inputs":[{"name":"user","type":"address","internalType":"address"}],"outputs":[{"name":"","type":"uint256","internalType":"uint256"}],"stateMutability":"view"},{"type":"function","name":"getWhitelistStatus","inputs":[{"name":"round","type":"uint256","internalType":"uint256"},{"name":"user","type":"address","internalType":"address"}],"outputs":[{"name":"allowance","type":"uint256","internalType":"uint256"},{"name":"minted","type":"uint256","internalType":"uint256"}],"stateMutability":"view"},{"type":"function","name":"initialize","inputs":[{"name":"_owner","type":"address","internalType":"address"},{"name":"_companions","type":"address","internalType":"address"},{"name":"_tools","type":"address","internalType":"address"},{"name":"_collectibles","type":"address","internalType":"address"},{"name":"_books","type":"address","internalType":"address"},{"name":"_kttyToken","type":"address","internalType":"address"},{"name":"_treasuryWallet","type":"address","internalType":"address"},{"name":"_maxMintPerTransaction","type":"uint256","internalType":"uint256"}],"outputs":[],"stateMutability":"nonpayable"},{"type":"function","name":"isBookOpened","inputs":[{"name":"bookId","type":"uint256","internalType":"uint256"}],"outputs":[{"name":"","type":"bool","internalType":"bool"}],"stateMutability":"view"},{"type":"function","name":"isWhitelistedForRound3","inputs":[{"name":"user","type":"address","internalType":"address"},{"name":"proof","type":"bytes32[]","internalType":"bytes32[]"}],"outputs":[{"name":"","type":"bool","internalType":"bool"}],"stateMutability":"view"},{"type":"function","name":"loadBucket","inputs":[{"name":"bucketIndex","type":"uint256","internalType":"uint256"},{"name":"bookIds","type":"uint256[]","internalType":"uint256[]"},{"name":"nullCount","type":"uint256","internalType":"uint256"},{"name":"oneOfOneCount","type":"uint256","internalType":"uint256"},{"name":"goldenTicketCount","type":"uint256","internalType":"uint256"},{"name":"basicCount","type":"uint256","internalType":"uint256"}],"outputs":[],"stateMutability":"nonpayable"},{"type":"function","name":"loadPool1","inputs":[{"name":"bookIds","type":"uint256[]","internalType":"uint256[]"}],"outputs":[],"stateMutability":"nonpayable"},{"type":"function","name":"loadPool2","inputs":[{"name":"bookIds","type":"uint256[]","internalType":"uint256[]"}],"outputs":[],"stateMutability":"nonpayable"},{"type":"function","name":"manualAirdrop","inputs":[{"name":"tokenIds","type":"uint256[]","internalType":"uint256[]"},{"name":"recipient","type":"address","internalType":"address"}],"outputs":[],"stateMutability":"nonpayable"},{"type":"function","name":"mint","inputs":[{"name":"quantity","type":"uint256","internalType":"uint256"},{"name":"paymentType","type":"uint8","internalType":"enum KttyWorldMinting.PaymentType"},{"name":"merkleProof","type":"bytes32[]","internalType":"bytes32[]"}],"outputs":[],"stateMutability":"payable"},{"type":"function","name":"onERC1155BatchReceived","inputs":[{"name":"","type":"address","internalType":"address"},{"name":"","type":"address","internalType":"address"},{"name":"","type":"uint256[]","internalType":"uint256[]"},{"name":"","type":"uint256[]","internalType":"uint256[]"},{"name":"","type":"bytes","internalType":"bytes"}],"outputs":[{"name":"","type":"bytes4","internalType":"bytes4"}],"stateMutability":"pure"},{"type":"function","name":"onERC1155Received","inputs":[{"name":"","type":"address","internalType":"address"},{"name":"","type":"address","internalType":"address"},{"name":"","type":"uint256","internalType":"uint256"},{"name":"","type":"uint256","internalType":"uint256"},{"name":"","type":"bytes","internalType":"bytes"}],"outputs":[{"name":"","type":"bytes4","internalType":"bytes4"}],"stateMutability":"pure"},{"type":"function","name":"onERC721Received","inputs":[{"name":"","type":"address","internalType":"address"},{"name":"","type":"address","internalType":"address"},{"name":"","type":"uint256","internalType":"uint256"},{"name":"","type":"bytes","internalType":"bytes"}],"outputs":[{"name":"","type":"bytes4","internalType":"bytes4"}],"stateMutability":"pure"},{"type":"function","name":"openBook","inputs":[{"name":"bookId","type":"uint256","internalType":"uint256"}],"outputs":[],"stateMutability":"nonpayable"},{"type":"function","name":"owner","inputs":[],"outputs":[{"name":"","type":"address","internalType":"address"}],"stateMutability":"view"},{"type":"function","name":"proxiableUUID","inputs":[],"outputs":[{"name":"","type":"bytes32","internalType":"bytes32"}],"stateMutability":"view"},{"type":"function","name":"renounceOwnership","inputs":[],"outputs":[],"stateMutability":"nonpayable"},{"type":"function","name":"setMaxMintPerTransaction","inputs":[{"name":"maxMint","type":"uint256","internalType":"uint256"}],"outputs":[],"stateMutability":"nonpayable"},{"type":"function","name":"setRound3MerkleRoot","inputs":[{"name":"merkleRoot","type":"bytes32","internalType":"bytes32"}],"outputs":[],"stateMutability":"nonpayable"},{"type":"function","name":"setTreasuryWallet","inputs":[{"name":"newWallet","type":"address","internalType":"address"}],"outputs":[],"stateMutability":"nonpayable"},{"type":"function","name":"setWhitelistAllowances","inputs":[{"name":"round","type":"uint256","internalType":"uint256"},{"name":"users","type":"address[]","internalType":"address[]"},{"name":"allowances","type":"uint256[]","internalType":"uint256[]"}],"outputs":[],"stateMutability":"nonpayable"},{"type":"function","name":"supportsInterface","inputs":[{"name":"interfaceId","type":"bytes4","internalType":"bytes4"}],"outputs":[{"name":"","type":"bool","internalType":"bool"}],"stateMutability":"view"},{"type":"function","name":"transferOwnership","inputs":[{"name":"newOwner","type":"address","internalType":"address"}],"outputs":[],"stateMutability":"nonpayable"},{"type":"function","name":"upgradeToAndCall","inputs":[{"name":"newImplementation","type":"address","internalType":"address"},{"name":"data","type":"bytes","internalType":"bytes"}],"outputs":[],"stateMutability":"payable"},{"type":"event","name":"BookAdded","inputs":[{"name":"bookId","type":"uint256","indexed":true,"internalType":"uint256"},{"name":"nftId","type":"uint256","indexed":false,"internalType":"uint256"},{"name":"toolIds","type":"uint256[3]","indexed":false,"internalType":"uint256[3]"},{"name":"goldenTicketId","type":"uint256","indexed":false,"internalType":"uint256"}],"anonymous":false},{"type":"event","name":"BookOpened","inputs":[{"name":"bookId","type":"uint256","indexed":true,"internalType":"uint256"},{"name":"owner","type":"address","indexed":true,"internalType":"address"}],"anonymous":false},{"type":"event","name":"BooksMinted","inputs":[{"name":"bookIds","type":"uint256[]","indexed":false,"internalType":"uint256[]"},{"name":"buyer","type":"address","indexed":true,"internalType":"address"}],"anonymous":false},{"type":"event","name":"BucketLoaded","inputs":[{"name":"bucketIndex","type":"uint256","indexed":true,"internalType":"uint256"},{"name":"bookCount","type":"uint256","indexed":false,"internalType":"uint256"}],"anonymous":false},{"type":"event","name":"Initialized","inputs":[{"name":"version","type":"uint64","indexed":false,"internalType":"uint64"}],"anonymous":false},{"type":"event","name":"MinterStatsUpdated","inputs":[{"name":"user","type":"address","indexed":true,"internalType":"address"},{"name":"totalMints","type":"uint256","indexed":false,"internalType":"uint256"}],"anonymous":false},{"type":"event","name":"OwnershipTransferred","inputs":[{"name":"previousOwner","type":"address","indexed":true,"internalType":"address"},{"name":"newOwner","type":"address","indexed":true,"internalType":"address"}],"anonymous":false},{"type":"event","name":"PaymentConfigured","inputs":[{"name":"roundNumber","type":"uint256","indexed":true,"internalType":"uint256"},{"name":"paymentType","type":"uint8","indexed":false,"internalType":"enum KttyWorldMinting.PaymentType"},{"name":"nativeAmount","type":"uint256","indexed":false,"internalType":"uint256"},{"name":"erc20Amount","type":"uint256","indexed":false,"internalType":"uint256"}],"anonymous":false},{"type":"event","name":"PoolLoaded","inputs":[{"name":"poolNumber","type":"uint256","indexed":true,"internalType":"uint256"},{"name":"bookCount","type":"uint256","indexed":false,"internalType":"uint256"}],"anonymous":false},{"type":"event","name":"RoundUpdated","inputs":[{"name":"roundNumber","type":"uint256","indexed":true,"internalType":"uint256"},{"name":"startTime","type":"uint256","indexed":false,"internalType":"uint256"},{"name":"endTime","type":"uint256","indexed":false,"internalType":"uint256"}],"anonymous":false},{"type":"event","name":"SpilloverDistributed","inputs":[{"name":"totalBooksDistributed","type":"uint256","indexed":false,"internalType":"uint256"}],"anonymous":false},{"type":"event","name":"TreasuryWalletUpdated","inputs":[{"name":"newWallet","type":"address","indexed":true,"internalType":"address"}],"anonymous":false},{"type":"event","name":"Upgraded","inputs":[{"name":"implementation","type":"address","indexed":true,"internalType":"address"}],"anonymous":false},{"type":"error","name":"AddressEmptyCode","inputs":[{"name":"target","type":"address","internalType":"address"}]},{"type":"error","name":"BookAlreadyOpened","inputs":[]},{"type":"error","name":"BookNotOwned","inputs":[]},{"type":"error","name":"ERC1967InvalidImplementation","inputs":[{"name":"implementation","type":"address","internalType":"address"}]},{"type":"error","name":"ERC1967NonPayable","inputs":[]},{"type":"error","name":"FailedCall","inputs":[]},{"type":"error","name":"InsufficientAllowance","inputs":[]},{"type":"error","name":"InsufficientPayment","inputs":[]},{"type":"error","name":"InvalidArrayLength","inputs":[]},{"type":"error","name":"InvalidInitialization","inputs":[]},{"type":"error","name":"InvalidPaymentType","inputs":[]},{"type":"error","name":"InvalidProof","inputs":[]},{"type":"error","name":"InvalidRound","inputs":[]},{"type":"error","name":"MaxMintExceeded","inputs":[]},{"type":"error","name":"NotInitializing","inputs":[]},{"type":"error","name":"OwnableInvalidOwner","inputs":[{"name":"owner","type":"address","internalType":"address"}]},{"type":"error","name":"OwnableUnauthorizedAccount","inputs":[{"name":"account","type":"address","internalType":"address"}]},{"type":"error","name":"PoolExhausted","inputs":[]},{"type":"error","name":"ReentrancyGuardReentrantCall","inputs":[]},{"type":"error","name":"RoundNotActive","inputs":[]},{"type":"error","name":"TransferFailed","inputs":[]},{"type":"error","name":"UUPSUnauthorizedCallContext","inputs":[]},{"type":"error","name":"UUPSUnsupportedProxiableUUID","inputs":[{"name":"slot","type":"bytes32","internalType":"bytes32"}]}],"bytecode":{"object":"0x60a08060405234620000d157306080527ff0c57e16840df040f15088dc2f81fe391c3923bec73e23a9662efc9c229c6a009081549060ff8260401c16620000c257506001600160401b036002600160401b0319828216016200007c575b604051613c679081620000d68239608051818181611fb8015261209c0152f35b6001600160401b031990911681179091556040519081527fc7f505b2f371ae2175ee4913f4499e1f2633a7b5936321eed1cdaeb6115181d290602090a15f80806200005c565b63f92ee8a960e01b8152600490fd5b5f80fdfe60806040526004361015610011575f80fd5b5f3560e01c80630177aba71461284157806301ffc9a7146127d357806308fd0e5114612785578063150b7a021461272f5780632c547fab146126165780632e52670c146124ff5780632e6cebe5146124bf5780632f1d5a8c146122e457806338c80fc3146122485780634f1ef2861461202257806352d1902d14611fa657806368fb42db14611e9d57806369afc11114611d37578063715018a614611cd057806374210461146117255780637f153e691461162e5780638362bede146115ba5780638725d9761461151f5780638830191114610fdd5780638da5cb5b14610fa95780638f1327c014610f44578063a32bf59714610f22578063a8602fea14610eab578063ad3cb1cc14610e66578063b1eb5a5014610e3a578063b440da2f14610d95578063b5d560aa14610c5f578063bc197c8114610bd4578063bdc2bde3146107e1578063c622969814610736578063d705adde14610598578063d8180f0f14610494578063e0ff5b8b146103c2578063e5066bbf146102bc578063f23a6e6114610266578063f2fde38b1461023b578063f98fcec7146101fb5763ffd4b036146101bb575f80fd5b346101f7575f3660031901126101f75760207f7d8c6f4e3a9b5c8f2e1a7d4c9f6e3a0b5c8f2e1a7d4c9f6e3a0b5c8f2e1a7d4d54604051908152f35b5f80fd5b346101f75760203660031901126101f757610214613657565b6004357f7d8c6f4e3a9b5c8f2e1a7d4c9f6e3a0b5c8f2e1a7d4c9f6e3a0b5c8f2e1a7d4b55005b346101f75760203660031901126101f757610264610257612861565b61025f613657565b6135e6565b005b346101f75760a03660031901126101f75761027f612861565b50610288612877565b506084356001600160401b0381116101f7576102a890369060040161288d565b505060405163f23a6e6160e01b8152602090f35b346101f7575f3660031901126101f75760405160808082018281106001600160401b038211176103ae576040525f5b81811061039957600183815b60048111156103345750604051905f825b600482106103165761040084f35b60206101008261032888948751612a9b565b01930191019091610308565b805f525f80516020613ab283398151915260205260405f20905f19810191818311610385576103809261036961037a9261347e565b61037382876135d5565b52846135d5565b506134df565b6102f7565b634e487b7160e01b5f52601160045260245ffd5b6020906103a46133fb565b81850152016102eb565b634e487b7160e01b5f52604160045260245ffd5b346101f75760203660031901126101f757606060806040516103e381612933565b5f81526040516103f28161294e565b8336823760208201525f60408201525f83820152015260245f60018060a01b035f80516020613af283398151915254166040519283809263e0ff5b8b60e01b825260043560048301525afa801561048957610463915f91610467575b50604051918291602083526020830190612a39565b0390f35b61048391503d805f833e61047b8183612984565b8101906135b0565b8261044e565b6040513d5f823e3d90fd5b346101f75760603660031901126101f7576001600160401b036004356024358281116101f7576104c89036906004016128ba565b9190926044359081116101f7576104e39036906004016128ba565b9390926104ee613657565b60019460018414158061058d575b61057b578082036101f7575f5b82811061051257005b61051d818388613171565b3590855f526020917f7d8c6f4e3a9b5c8f2e1a7d4c9f6e3a0b5c8f2e1a7d4c9f6e3a0b5c8f2e1a7d49835260405f20610557838789613171565b356001600160a01b03811694908590036101f7578a945f525260405f205501610509565b6040516328ad4a9560e21b8152600490fd5b5060028414156104fc565b346101f75760c03660031901126101f7576001600160401b036004356024358281116101f7576105cc9036906004016128ba565b6105d4613657565b600883101561057b5760405160e08101818110868211176103ae576040526105fb82612af4565b6106086040519182612984565b8281526020938482018460051b8201913683116101f7578690915b838310610726575050505081528281015f8152604082015f81526060830160443581526080840191606435835260a0850193608435855260c086019960a4358b5261066d8a61300d565b979097610713575180519182116103ae57899061068a838a612fcd565b01875f52895f205f5b8381106107015750505050917f2b8b17e8a131269fdf34c60b6822a764014dfb196354965b1aef09bbaebd545b9899939160069593516001880155600287019051151560ff8019835416911617905551600386015551600485015551600584015551910155604051908152a2005b825182820155918b0191600101610693565b634e487b7160e01b5f525f60045260245ffd5b8235815291810191879101610623565b346101f7576020806003193601126101f7576004355f82604051610759816128fd565b82815201525f8260405161076c816128fd565b8281520152801580156107d7575b61057b57608091815f525f80516020613ab28339815191528082526107a4600360405f2001613460565b925f5281526107b8600560405f2001613460565b8160405193805185520151828401528051604084015201516060820152f35b506004811161077a565b346101f7576020806003193601126101f757600435906107ff61368f565b5f80516020613af283398151915280546040516331a9108f60e11b8152600481018590526001600160a01b03939182908290602490829088165afa908115610489575f91610b9e575b508333911603610b8c57835f527f7d8c6f4e3a9b5c8f2e1a7d4c9f6e3a0b5c8f2e1a7d4c9f6e3a0b5c8f2e1a7d489081815260ff60405f205416610b7a57602491855f52815260405f2090600191600160ff198254161790555f858554166040519485809263e0ff5b8b60e01b82528a60048301525afa928315610489575f93610b5e575b507f7d8c6f4e3a9b5c8f2e1a7d4c9f6e3a0b5c8f2e1a7d4c9f6e3a0b5c8f2e1a7d0085815416845190803b156101f7576040516323b872dd60e01b815230600482015233602482015260448101929092525f908290606490829084905af19081610b4f575b50610949576040516312171d8360e31b8152600490fd5b859054168351813b156101f7575f91602483926040519485938492635a46cf3d60e01b845260048401525af1801561048957610b40575b505f5b60038110610aa2575050506060810151610a14575b505416803b156101f7575f809160246040518094819363c66d208f60e01b83528760048401525af1801561048957610a05575b5033907fa6bada3e97386c4cb1b5c737f24e46af11bf755bd6d467fde7f4b0e152ec98395f80a360015f80516020613bb283398151915255005b610a0e906128ea565b816109cb565b6040837f7d8c6f4e3a9b5c8f2e1a7d4c9f6e3a0b5c8f2e1a7d4c9f6e3a0b5c8f2e1a7d02541691015190803b156101f757604051637921219560e11b815230600482015233602482015260448101929092526001606483015260a060848301525f60a4830181905290829060c490829084905af18015610489571561099857610a9c906128ea565b83610998565b857f7d8c6f4e3a9b5c8f2e1a7d4c9f6e3a0b5c8f2e1a7d4c9f6e3a0b5c8f2e1a7d01541690828501518160051b015191803b156101f757604051637921219560e11b815230600482015233602482015260448101939093526001606484015260a060848401525f60a4840181905290839060c490829084905af1918215610489578492610b31575b5001610983565b610b3a906128ea565b88610b2a565b610b49906128ea565b86610980565b610b58906128ea565b88610932565b610b739193503d805f833e61047b8183612984565b91866108cd565b6040516360add19160e11b8152600490fd5b604051635318accb60e01b8152600490fd5b90508181813d8311610bcd575b610bb58183612984565b810103126101f7575183811681036101f75785610848565b503d610bab565b346101f75760a03660031901126101f757610bed612861565b50610bf6612877565b506001600160401b036044358181116101f757610c179036906004016128ba565b50506064358181116101f757610c319036906004016128ba565b50506084359081116101f757610c4b90369060040161288d565b505060405163bc197c8160e01b8152602090f35b346101f75760803660031901126101f75760043560243560028110156101f75760443590606435610c8e613657565b83158015610d8b575b61057b575f9082610d2e57604051610cae816128fd565b8481526004602082015f8152875f525f80516020613ab283398151915260205260405f2092516003840155519101555b60405191610d1a577f8f341ec4552989b9bb68741eb1b467f541104020a4ec362d766861889b88d4f893606093835260208301526040820152a2005b634e487b7160e01b5f52602160045260245ffd5b5f915060018303610d7957604051610d45816128fd565b848152600660208201838152875f525f80516020613ab283398151915260205260405f209251600584015551910155610cde565b604051630e5525c360e31b8152600490fd5b5060048411610c97565b346101f75760403660031901126101f757610dae612861565b6024356001600160401b0381116101f757602091610e2b610dd6610e309336906004016128ba565b919092604051868101916001600160601b03199060601b16825260148152610dfd816128fd565b519020927f7d8c6f4e3a9b5c8f2e1a7d4c9f6e3a0b5c8f2e1a7d4c9f6e3a0b5c8f2e1a7d4b54923691613562565b6136ed565b6040519015158152f35b346101f75760203660031901126101f7576020610e5d610e58612861565b613051565b54604051908152f35b346101f7575f3660031901126101f757610463604051610e85816128fd565b60058152640352e302e360dc1b6020820152604051918291602083526020830190612a14565b346101f75760203660031901126101f757610ec4612861565b610ecc613657565b5f80516020613a5283398151915280546001600160a01b0319166001600160a01b0383161790556001600160a01b03167f97c79b3848e51f57983ac89e4403452655c8d83ceba8199011de63a74f60d1a75f80a2005b346101f7575f3660031901126101f7576020610f3c6134ed565b604051908152f35b346101f75760203660031901126101f757600435610f606133fb565b5080158015610f9f575b61057b575f525f80516020613ab2833981519152602052610100610f9060405f2061347e565b610f9d6040518092612a9b565bf35b5060048111610f6a565b346101f7575f3660031901126101f7575f80516020613b32833981519152546040516001600160a01b039091168152602090f35b346101f7576101003660031901126101f757610ff7612861565b610fff612877565b906044356001600160a01b03818116918290036101f7576064358181168091036101f7576084358281168091036101f75760a435918383168093036101f75760c4359484861686036101f7575f80516020613bf283398151915254976001600160401b0389168015908161150f575b6001149081611505575b1590816114fc575b506114ea576110c66111df9860016001600160401b03198c16175f80516020613bf28339815191525560ff8b60401c16156114be575b6110be6138ca565b61025f6138ca565b6110ce6138ca565b6110d66138ca565b6110de6138ca565b60015f80516020613bb2833981519152556001600160601b0360a01b957f7d8c6f4e3a9b5c8f2e1a7d4c9f6e3a0b5c8f2e1a7d4c9f6e3a0b5c8f2e1a7d009116868254161790557f7d8c6f4e3a9b5c8f2e1a7d4c9f6e3a0b5c8f2e1a7d4c9f6e3a0b5c8f2e1a7d0190858254161790557f7d8c6f4e3a9b5c8f2e1a7d4c9f6e3a0b5c8f2e1a7d4c9f6e3a0b5c8f2e1a7d0290848254161790555f80516020613af283398151915290838254161790557f7d8c6f4e3a9b5c8f2e1a7d4c9f6e3a0b5c8f2e1a7d4c9f6e3a0b5c8f2e1a7d04918254161790555f80516020613a528339815191529060018060a01b03166001600160601b0360a01b825416179055565b60e4357f7d8c6f4e3a9b5c8f2e1a7d4c9f6e3a0b5c8f2e1a7d4c9f6e3a0b5c8f2e1a7d06555f7f7d8c6f4e3a9b5c8f2e1a7d4c9f6e3a0b5c8f2e1a7d4c9f6e3a0b5c8f2e1a7d05555f80516020613a72833981519152600160ff198254161790555f80516020613b92833981519152600160ff19825416179055604051611265816128fd565b5f81525f60208201526040519061127b826128fd565b5f82525f60208301526040519061129182612918565b42825260208201925f19845260408301915f835260016060850152608084015260a08301525f80525f80516020613ab283398151915260205260405f20928251845551600184015551906004821015610d1a57600283018054606083015161ff0090151560081b1660ff9490941661ffff19909116179290921790915560069060209060a0908260808201518051600388015501516004860155015180516005850155015191015560015b60048111156113aa5760ff8260401c161561135357005b68ff0000000000000000195f80516020613bf283398151915254165f80516020613bf2833981519152557fc7f505b2f371ae2175ee4913f4499e1f2633a7b5936321eed1cdaeb6115181d2602060405160018152a1005b600281116114a6576001905b6040516113c2816128fd565b5f81525f6020820152604051926113d8846128fd565b5f84525f6020850152604051936113ee85612918565b5f855260208501925f8452611407604087019384613454565b5f6060870152608086015260a0850152825f525f80516020613ab283398151915260205260405f209184518355516001830155516004811015610d1a57600282018054606086015161ff0090151560081b1660ff9390931661ffff19909116179190911790556114a19260069060209060a090826080820151805160038801550151600486015501518051600585015501519101556134df565b61133c565b600381036114b75760025b906113b6565b60036114b1565b68ffffffffffffffffff198b1668010000000000000001175f80516020613bf2833981519152556110b6565b60405163f92ee8a960e01b8152600490fd5b9050158a611080565b303b159150611078565b60408b901c60ff1615915061106e565b346101f75760603660031901126101f757600435602435604435611541613657565b821580156115b0575b61057b577f717f6028ca251059c1372c3af54bbf4541e12df136c99141422b0d34457b715c91604091845f525f80516020613ab28339815191526020526002835f208381558260018201550161010061ff001982541617905582519182526020820152a2005b506004831161154a565b346101f7575f3660031901126101f7576115d2613181565b906040518092604082019060408352835180925260608301916020809501945f5b82811061160e578580610463878783820360208501526129c0565b86516001600160a01b0316855295810195879550938101936001016115f3565b346101f75760403660031901126101f7576004356001600160401b0381116101f75761165e9036906004016128ba565b90611667612877565b61166f613657565b5f5b83811061167a57005b7f7d8c6f4e3a9b5c8f2e1a7d4c9f6e3a0b5c8f2e1a7d4c9f6e3a0b5c8f2e1a7d00546001600160a01b03166116b0828686613171565b3590803b156101f7576040516323b872dd60e01b81523060048201526001600160a01b038516602482015260448101929092525f908290606490829084905af19081611716575b5061170e576040516312171d8360e31b8152600490fd5b600101611671565b61171f906128ea565b856116f7565b60603660031901126101f75760043560243560028110156101f7576044356001600160401b0381116101f75761175f9036906004016128ba565b61176a93919361368f565b81158015611ca6575b611c945761177f6134ed565b938461179757604051633df07da560e01b8152600490fd5b600185148015611c8a575b15611c3a575050825f5260207f7d8c6f4e3a9b5c8f2e1a7d4c9f6e3a0b5c8f2e1a7d4c9f6e3a0b5c8f2e1a7d49815260405f20335f52815260405f2054845f527f7d8c6f4e3a9b5c8f2e1a7d4c9f6e3a0b5c8f2e1a7d4c9f6e3a0b5c8f2e1a7d4a9081835260405f20335f52835260405f20548115611c28578461182591612b4a565b11611c2857845f52815260405f2090335f525260405f20611847828254612b4a565b90555b60405191611857836128fd565b5f80845260209384015280611bfa5750825f525f80516020613ab28339815191528252611889600360405f2001613460565b6118a18284611899828551612fba565b930151612fba565b813410611be8578381611b30575b505080611af3575b803411611abc575b506118c981612b0b565b925f5b828110611a9f575050506118df33613051565b5415905f5b835181101561196c575f80516020613af2833981519152546001600160a01b0316906119108186612b57565b5191803b156101f7576040516323b872dd60e01b815230600482015233602482015260448101939093525f908390606490829084905af19182156104895760019261195d575b50016118e4565b611966906128ea565b85611956565b509190815161198561197d33613051565b918254612b4a565b9055611a0f575b6119f97ff3ce527104f286770f4fc87d4e89d9f74792ff875bbea7132eefb8339eaf5793916119ba33613051565b546040519081527f77dc9f4ab140b9972f1d60c3c217ec190c5f7afc24fdc86e2d66f72dfae015e1853392a260405191829185835233958301906129c0565b0390a260015f80516020613bb283398151915255005b7f7d8c6f4e3a9b5c8f2e1a7d4c9f6e3a0b5c8f2e1a7d4c9f6e3a0b5c8f2e1a7d4d805491600160401b8310156103ae5760018301808355831015611a8b575f919091527f061b1021a71fd8d17082e509ad43c6e7896e4ecce26a31975e32ba2385654d1a90910180546001600160a01b0319163317905561198c565b634e487b7160e01b5f52603260045260245ffd5b600190611aab8361373e565b611ab58288612b57565b52016118cc565b5f8080611aca819434612b3d565b335af1611ad56136be565b5015611ae157836118bf565b6040516312171d8360e31b8152600490fd5b5f8080808460018060a01b035f80516020613a5283398151915254165af1611b196136be565b506118b7576040516312171d8360e31b8152600490fd5b7f7d8c6f4e3a9b5c8f2e1a7d4c9f6e3a0b5c8f2e1a7d4c9f6e3a0b5c8f2e1a7d04545f80516020613a52833981519152546040516323b872dd60e01b81523360048201526001600160a01b0391821660248201526044810194909452839160649183915f91165af1908115610489575f91611bb3575b5015611ae15784836118af565b90508381813d8311611be1575b611bca8183612984565b810103126101f757611bdb90613089565b85611ba6565b503d611bc0565b60405163cd1c886760e01b8152600490fd5b600103610d7957825f525f80516020613ab28339815191528252611c23600560405f2001613460565b611889565b6040516313be252b60e01b8152600490fd5b60038514611c4a575b505061184a565b611c6c91610e2b60405160208101903360601b825260148152610dfd816128fd565b15611c78578380611c43565b6040516309bde33960e01b8152600490fd5b50600285146117a2565b604051633ce95f8560e11b8152600490fd5b507f7d8c6f4e3a9b5c8f2e1a7d4c9f6e3a0b5c8f2e1a7d4c9f6e3a0b5c8f2e1a7d06548211611773565b346101f7575f3660031901126101f757611ce8613657565b5f80516020613b3283398151915280546001600160a01b031981169091555f906001600160a01b03167f8be0079c531659141344cd1fd0a4f28419497f9722a3daafe3b4186f6b6457e08280a3005b346101f7576020806003193601126101f757611d51612861565b5f80516020613af2833981519152546040516369afc11160e01b81526001600160a01b039283166004820152915f9183916024918391165afa908115610489575f91611df7575b506040519082820192808352815180945260408301938160408260051b8601019301915f955b828710611dcb5785850386f35b909192938280611de7600193603f198a82030186528851612a39565b9601920196019592919092611dbe565b90503d805f833e611e088183612984565b810182828203126101f75781516001600160401b03928382116101f7570181601f820112156101f7578051611e3c81612af4565b93611e4a6040519586612984565b818552858086019260051b840101938085116101f757868401925b858410611e785750505050505082611d98565b83518381116101f7578891611e92848480948a0101613096565b815201930192611e65565b346101f7576020806003193601126101f757611eb7612861565b5f80516020613af2833981519152546040516368fb42db60e01b81526001600160a01b03928316600482015292915f9184916024918391165afa918215610489575f92611f14575b506104636040519282849384528301906129c0565b9091503d805f833e611f268183612984565b81019082818303126101f7578051906001600160401b0382116101f757019080601f830112156101f757815191611f5c83612af4565b92611f6a6040519485612984565b808452848085019160051b8301019283116101f75784809201905b838210611f9757505050509082611eff565b81518152908201908201611f85565b346101f7575f3660031901126101f7577f00000000000000000000000000000000000000000000000000000000000000006001600160a01b031630036120105760206040517f360894a13ba1a3210667c828492db98dca3e2076cc3735a920a3ca505d382bbc8152f35b60405163703e46dd60e11b8152600490fd5b60403660031901126101f757612036612861565b60249081356001600160401b0381116101f757366023820112156101f757806004013591612063836129a5565b6120706040519182612984565b83815260209384820193368783830101116101f757815f92888893018737830101526001600160a01b037f0000000000000000000000000000000000000000000000000000000000000000811630811490811561221a575b50612010576120d5613657565b6040516352d1902d60e01b8152908316948082600481895afa9182915f936121ea575b505061211657604051634c9c8ce360e01b8152600481018690528690fd5b8490867f360894a13ba1a3210667c828492db98dca3e2076cc3735a920a3ca505d382bbc918281036121d55750843b156121bf575080546001600160a01b03191682179055604051907fbc7cd75a20ee27fd9adebab32041f755214dbc6bffa90cc0225b39da2e5c2d3b5f80a28151156121a557505f6102649381925190845af461219f6136be565b916139ee565b92505050346121b057005b63b398979f60e01b8152600490fd5b604051634c9c8ce360e01b815260048101849052fd5b60405190632a87526960e21b82526004820152fd5b9080929350813d8311612213575b6122028183612984565b810103126101f757519087806120f8565b503d6121f8565b9050817f360894a13ba1a3210667c828492db98dca3e2076cc3735a920a3ca505d382bbc54161415876120c8565b346101f75760403660031901126101f7576040600435612266612877565b815f527f7d8c6f4e3a9b5c8f2e1a7d4c9f6e3a0b5c8f2e1a7d4c9f6e3a0b5c8f2e1a7d49602052825f209060018060a01b031690815f52602052825f2054915f527f7d8c6f4e3a9b5c8f2e1a7d4c9f6e3a0b5c8f2e1a7d4c9f6e3a0b5c8f2e1a7d4a602052825f20905f52602052815f205482519182526020820152f35b346101f7575f3660031901126101f7576040516101008082018281106001600160401b038211176103ae576040525f5b8181106124a157825f80516020613c1283398151915254905f80516020613b728339815191525460ff805f80516020613a7283398151915254165f14612483575f915b5f80516020613b928339815191525460ff1615612465575f905b5f80516020613b5283398151915254925f5b600881106123f9575050604051958652602093602087015260408601526060850152608084015260a083015f905b600882106123bf576102a085f35b82845182905f915b600283106123e3575050506040600192019401910190926123b1565b81518152869360019093019291820191016123c7565b8082600261240860019461300d565b500154161561243f575f5b61241d828a613040565b51526124288161300d565b50546020612436838b613040565b51015201612383565b61246061244b8261300d565b5054836124578461300d565b50015490612b3d565b612413565b61247d5f80516020613bd28339815191525482612b3d565b90612371565b61249b5f80516020613a928339815191525485612b3d565b91612357565b6020906040516124b0816128fd565b60403682378185015201612314565b346101f75760203660031901126101f7576124d8613657565b6004357f7d8c6f4e3a9b5c8f2e1a7d4c9f6e3a0b5c8f2e1a7d4c9f6e3a0b5c8f2e1a7d0655005b346101f7576020806003193601126101f7576001600160401b03906004358281116101f7576125329036906004016128ba565b9261253b613657565b83116103ae57600160401b83116103ae575f80516020613b728339815191529081548483558085106125e9575b50905f525f5b8381106125ca5760027ff46dbf41bb9e0076f09f62efef0de3c3e5c98f866e6a8420a61fc07f01df50c86020865f5f80516020613bd2833981519152555f80516020613b9283398151915260ff198154169055604051908152a2005b81355f80516020613b128339815191528201559082019060010161256e565b845f80516020613b1283398151915291820191015b81811061260b5750612568565b5f81556001016125fe565b346101f7576020806003193601126101f7576001600160401b03906004358281116101f7576126499036906004016128ba565b919092612654613657565b82116103ae57600160401b82116103ae576001925f80516020613c12833981519152908154848355808510612703575b50905f525f5b8381106126e557847ff46dbf41bb9e0076f09f62efef0de3c3e5c98f866e6a8420a61fc07f01df50c86020865f5f80516020613a92833981519152555f80516020613a7283398151915260ff198154169055604051908152a2005b81355f80516020613ad283398151915282015590820190840161268a565b845f80516020613ad283398151915291820191015b8181106127255750612684565b5f81558601612718565b346101f75760803660031901126101f757612748612861565b50612751612877565b506064356001600160401b0381116101f75761277190369060040161288d565b5050604051630a85bd0160e11b8152602090f35b346101f75760203660031901126101f7576004355f527f7d8c6f4e3a9b5c8f2e1a7d4c9f6e3a0b5c8f2e1a7d4c9f6e3a0b5c8f2e1a7d48602052602060ff60405f2054166040519015158152f35b346101f75760203660031901126101f75760043563ffffffff60e01b81168091036101f757602090630271189760e51b8114908115612830575b811561281f575b506040519015158152f35b6301ffc9a760e01b14905082612814565b630a85bd0160e11b8114915061280d565b346101f7575f3660031901126101f757612859613657565b610264612b80565b600435906001600160a01b03821682036101f757565b602435906001600160a01b03821682036101f757565b9181601f840112156101f7578235916001600160401b0383116101f757602083818601950101116101f757565b9181601f840112156101f7578235916001600160401b0383116101f7576020808501948460051b0101116101f757565b6001600160401b0381116103ae57604052565b604081019081106001600160401b038211176103ae57604052565b60c081019081106001600160401b038211176103ae57604052565b60a081019081106001600160401b038211176103ae57604052565b606081019081106001600160401b038211176103ae57604052565b602081019081106001600160401b038211176103ae57604052565b90601f801991011681019081106001600160401b038211176103ae57604052565b6001600160401b0381116103ae57601f01601f191660200190565b9081518082526020808093019301915f5b8281106129df575050505090565b8351855293810193928101926001016129d1565b5f5b838110612a045750505f910152565b81810151838201526020016129f5565b90602091612a2d815180928185528580860191016129f3565b601f01601f1916010190565b80518252602080820151905f8185015b60038210612a8657505050509060e06080836040612a83950151828501526060810151151560a08501520151918160c08201520190612a14565b90565b82806001928651815201940191019092612a49565b80518252602081015160208301526040810151906004821015610d1a5760a060209160e0936040860152606081015115156060860152826080820151805160808801520151828601520151805160c08501520151910152565b6001600160401b0381116103ae5760051b60200190565b90612b1582612af4565b612b226040519182612984565b8281528092612b33601f1991612af4565b0190602036910137565b9190820391821161038557565b9190820180921161038557565b8051821015611a8b5760209160051b010190565b8054821015611a8b575f5260205f2001905f90565b60408051612b8d81612969565b5f81525f368137905f915f80516020613a7283398151915280549060ff82161580612f95575b612f01575b50505f80516020613b9283398151915280549060ff82161580612edc575b612e05575b50508215612e00576003918360031c9160078516905f905f5b60088110612c30575050505050505060207f87b27d2db832ebca3d4fb12bf8950a814397be2fe04541fe2ba6068284320cda91604051908152a1565b85848210612ddf575b80612c48575b50600101612bf4565b9092612c538461300d565b50805490612c618483612b4a565b612c6a81612b0b565b925f5b818110612dbb5750505f606033811b915b878110612ce357505050508151916001600160401b0383116103ae57612ca48383612fcd565b6020809101915f52805f20905f5b848110612cd1575050505050600191612cca91612b4a565b9290612c3f565b83518382015592810192600101612cb2565b612cf6612cf08289612b4a565b8a612b57565b51612d0a82612d058b88612b3d565b612b4a565b60018101809111610385578d8051602081019142835244908201528d868201528460808201528660a082015260948152612d4381612918565b5190208115612da75706612d5b83612d058c89612b3d565b818111612d78575090612d716001939289612b57565b5201612c7e565b5f19810181811161038557612d8d908a612b57565b51612d98828b612b57565b528015610385575f1901612d5b565b634e487b7160e01b5f52601260045260245ffd5b808d612dc960019387612b6b565b9054911b1c612dd88288612b57565b5201612c6d565b506001860180871115612c3957634e487b7160e01b5f52601160045260245ffd5b505050565b9093915f80516020613b728339815191529081545f80516020613bd283398151915254612e328183612b3d565b93612e45612e408689612b4a565b612b0b565b935f5b888110612ebd5750505f5b858110612e7a5750505050600191612e6b9194612b4a565b9460ff19161790555f80612bdb565b612e848184612b4a565b9084821015611a8b57600191835f525f80516020613b128339815191520154612eb6612eb0838c612b4a565b88612b57565b5201612e53565b80612eca60019284612b57565b51612ed58289612b57565b5201612e48565b505f80516020613bd2833981519152545f80516020613b728339815191525411612bd6565b915092505f80516020613c128339815191529081545f80516020613a928339815191525492612f308483612b3d565b93612f3a85612b0b565b925f5b868110612f5b575050505060ff199094166001179055915f80612bb8565b612f658184612b4a565b9082821015611a8b57600191855f525f80516020613ad28339815191520154612f8e8288612b57565b5201612f3d565b505f80516020613a92833981519152545f80516020613c128339815191525411612bb3565b8181029291811591840414171561038557565b90600160401b81116103ae57815491818155828210612feb57505050565b5f5260205f2091820191015b818110613002575050565b5f8155600101612ff7565b6008811015611a8b576007027f7d8c6f4e3a9b5c8f2e1a7d4c9f6e3a0b5c8f2e1a7d4c9f6e3a0b5c8f2e1a7d0f01905f90565b906008811015611a8b5760051b0190565b6001600160a01b03165f9081527f7d8c6f4e3a9b5c8f2e1a7d4c9f6e3a0b5c8f2e1a7d4c9f6e3a0b5c8f2e1a7d4c6020526040902090565b519081151582036101f757565b919060e0838203126101f757604051926130af84612933565b838151815260209183603f820112156101f7576040516130ce8161294e565b8060808301918683116101f75785808501915b8483106131615750905084015251604083015261310060a08201613089565b606083015260c0810151906001600160401b0382116101f757019183601f840112156101f7578251613131816129a5565b9461313f6040519687612984565b8186528282860101116101f7576080938261315d93870191016129f3565b0152565b82518152918101918791016130e1565b9190811015611a8b5760051b0190565b7f7d8c6f4e3a9b5c8f2e1a7d4c9f6e3a0b5c8f2e1a7d4c9f6e3a0b5c8f2e1a7d4d90815480156133d15760058111156133cb5760055b6131c081612b0b565b916131ca82612b0b565b946040518080928483526020809301905f527f061b1021a71fd8d17082e509ad43c6e7896e4ecce26a31975e32ba2385654d1a925f5b8681106133ab57505061321592500382612984565b61321e82612b0b565b915f5b81811061337a57505f5b84811061323b5750505050509190565b806001808301808411610385575b84811061330157505090818160019303613298575b50818060a01b0361326f8286612b57565b511661327b8289612b57565b526132868186612b57565b51613291828b612b57565b520161322b565b828060a01b03806132a98388612b57565b5116906132b68488612b57565b51166132c28388612b57565b526132cd8387612b57565b526132d88187612b57565b51906132ef6132e78489612b57565b519188612b57565b526132fa8287612b57565b525f61325e565b61330b8188612b57565b516133168489612b57565b51108015613333575b61332b575b8101613249565b915081613324565b5061333e8188612b57565b516133498489612b57565b5114801561331f57506001600160a01b03806133658389612b57565b5116906133728589612b57565b51161161331f565b6001906133996001600160a01b036133928387612b57565b5116613051565b546133a48287612b57565b5201613221565b84546001600160a01b031683526001948501948694509282019201613200565b806131b7565b5060405191506133e082612969565b5f8252604051916133f083612969565b5f83525f3681379190565b6040519061340882612918565b815f81525f60208201525f60408201525f606082015260405161342a816128fd565b5f81525f6020820152608082015260a060405191613447836128fd565b5f83525f60208401520152565b6004821015610d1a5752565b9060405161346d816128fd565b602060018294805484520154910152565b9060405161348b81612918565b60a06134da60058395805485526001810154602086015260ff60028201546134b882821660408901613454565b60081c16151560608601526134cf60038201613460565b608086015201613460565b910152565b5f1981146103855760010190565b60015b60048111156134fe57505f90565b805f5260205f80516020613ab2833981519152815261351f60405f2061347e565b90606082015115159182613556575b82613548575b5050612a8357613543906134df565b6134f0565b015142111590505f80613534565b8051421015925061352e565b929161356d82612af4565b9161357b6040519384612984565b829481845260208094019160051b81019283116101f757905b8282106135a15750505050565b81358152908301908301613594565b906020828203126101f75781516001600160401b0381116101f757612a839201613096565b906004811015611a8b5760051b0190565b6001600160a01b0390811690811561363f575f80516020613b3283398151915280546001600160a01b031981168417909155167f8be0079c531659141344cd1fd0a4f28419497f9722a3daafe3b4186f6b6457e05f80a3565b604051631e4fbdf760e01b81525f6004820152602490fd5b5f80516020613b32833981519152546001600160a01b0316330361367757565b60405163118cdaa760e01b8152336004820152602490fd5b5f80516020613bb283398151915260028154146136ac5760029055565b604051633ee5aeb560e01b8152600490fd5b3d156136e8573d906136cf826129a5565b916136dd6040519384612984565b82523d5f602084013e565b606090565b929091905f915b8451831015613736576137078386612b57565b519081811015613725575f52602052600160405f205b9201916136f4565b905f52602052600160405f2061371d565b915092501490565b6001810361380157505f80516020613a7283398151915280549060ff821680156137db575b6137c9575f80516020613a92833981519152918254925f80516020613c128339815191529081549182861015611a8b575f526137af855f80516020613ad28339815191520154956134df565b80915510156137bd57505090565b60ff1916600117905590565b6040516311a7ebfd60e31b8152600490fd5b505f80516020613a92833981519152545f80516020613c12833981519152541115613763565b6002810361389857505f80516020613b9283398151915280549060ff82168015613872575b6137c9575f80516020613bd2833981519152918254925f80516020613b728339815191529081549182861015611a8b575f526137af855f80516020613b128339815191520154956134df565b505f80516020613bd2833981519152545f80516020613b72833981519152541115613826565b600381036138a95750612a836138f8565b6004146138c2576040516311a7ebfd60e31b8152600490fd5b612a836138f8565b60ff5f80516020613bf28339815191525460401c16156138e657565b604051631afcd79f60e31b8152600490fd5b5f80516020613b528339815191525460088110806139d1575b1561393857613922613933916134df565b5f80516020613b5283398151915255565b6138f8565b505f80516020613b52833981519152805460088110156137c95761395b9061300d565b5060018101918254825411156139af575081549161398f61398961397f8585612b6b565b90549060031b1c90565b936134df565b8091558154111561399e575090565b600201805460ff1916600117905590565b6138c292506139cb60026139229301600160ff19825416179055565b546134df565b506139e960026139e08361300d565b50015460ff1690565b613911565b90613a155750805115613a0357602081519101fd5b60405163d6bda27560e01b8152600490fd5b81511580613a48575b613a26575090565b604051639996b31560e01b81526001600160a01b039091166004820152602490fd5b50803b15613a1e56fe7d8c6f4e3a9b5c8f2e1a7d4c9f6e3a0b5c8f2e1a7d4c9f6e3a0b5c8f2e1a7d077d8c6f4e3a9b5c8f2e1a7d4c9f6e3a0b5c8f2e1a7d4c9f6e3a0b5c8f2e1a7d0b7d8c6f4e3a9b5c8f2e1a7d4c9f6e3a0b5c8f2e1a7d4c9f6e3a0b5c8f2e1a7d0a7d8c6f4e3a9b5c8f2e1a7d4c9f6e3a0b5c8f2e1a7d4c9f6e3a0b5c8f2e1a7d08f323402854b7914f648b3f8f752f9617cb0142a8bb0a7485e2dcdfeaec0f7ce67d8c6f4e3a9b5c8f2e1a7d4c9f6e3a0b5c8f2e1a7d4c9f6e3a0b5c8f2e1a7d037e9df656e3c042488461d71a6b582b0bcc19715887be7cec14181d846b61ee649016d09d72d40fdae2fd8ceac6b6234c7706214fd39c1cd1e609a0528c1993007d8c6f4e3a9b5c8f2e1a7d4c9f6e3a0b5c8f2e1a7d4c9f6e3a0b5c8f2e1a7d477d8c6f4e3a9b5c8f2e1a7d4c9f6e3a0b5c8f2e1a7d4c9f6e3a0b5c8f2e1a7d0c7d8c6f4e3a9b5c8f2e1a7d4c9f6e3a0b5c8f2e1a7d4c9f6e3a0b5c8f2e1a7d0e9b779b17422d0df92223018b32b4d1fa46e071723d6817e2486d003becc55f007d8c6f4e3a9b5c8f2e1a7d4c9f6e3a0b5c8f2e1a7d4c9f6e3a0b5c8f2e1a7d0df0c57e16840df040f15088dc2f81fe391c3923bec73e23a9662efc9c229c6a007d8c6f4e3a9b5c8f2e1a7d4c9f6e3a0b5c8f2e1a7d4c9f6e3a0b5c8f2e1a7d09a2646970667358221220adce9e464c1630aa6d66231274134982ff36a1aa03315eccdd8c9c49a284e83064736f6c63430008160033","linkReferences":{}},"methodIdentifiers":{"UPGRADE_INTERFACE_VERSION()":"ad3cb1cc","configurePayment(uint256,uint8,uint256,uint256)":"b5d560aa","configureRound(uint256,uint256,uint256)":"8725d976","distributeSpilloverToBuckets()":"0177aba7","getAllRounds()":"e5066bbf","getBook(uint256)":"e0ff5b8b","getCurrentRound()":"a32bf597","getPaymentConfig(uint256)":"c6229698","getPoolAndBucketStatus()":"2f1d5a8c","getRound(uint256)":"8f1327c0","getTopMintersLeaderboard()":"8362bede","getTotalUniqueMinters()":"ffd4b036","getUserBooks(address)":"68fb42db","getUserBooksDetails(address)":"69afc111","getUserTotalMints(address)":"b1eb5a50","getWhitelistStatus(uint256,address)":"38c80fc3","initialize(address,address,address,address,address,address,address,uint256)":"88301911","isBookOpened(uint256)":"08fd0e51","isWhitelistedForRound3(address,bytes32[])":"b440da2f","loadBucket(uint256,uint256[],uint256,uint256,uint256,uint256)":"d705adde","loadPool1(uint256[])":"2c547fab","loadPool2(uint256[])":"2e52670c","manualAirdrop(uint256[],address)":"7f153e69","mint(uint256,uint8,bytes32[])":"74210461","onERC1155BatchReceived(address,address,uint256[],uint256[],bytes)":"bc197c81","onERC1155Received(address,address,uint256,uint256,bytes)":"f23a6e61","onERC721Received(address,address,uint256,bytes)":"150b7a02","openBook(uint256)":"bdc2bde3","owner()":"8da5cb5b","proxiableUUID()":"52d1902d","renounceOwnership()":"715018a6","setMaxMintPerTransaction(uint256)":"2e6cebe5","setRound3MerkleRoot(bytes32)":"f98fcec7","setTreasuryWallet(address)":"a8602fea","setWhitelistAllowances(uint256,address[],uint256[])":"d8180f0f","supportsInterface(bytes4)":"01ffc9a7","transferOwnership(address)":"f2fde38b","upgradeToAndCall(address,bytes)":"4f1ef286"},"id":66}