{"abi":[{"type":"constructor","inputs":[],"stateMutability":"nonpayable"},{"type":"function","name":"UPGRADE_INTERFACE_VERSION","inputs":[],"outputs":[{"name":"","type":"string","internalType":"string"}],"stateMutability":"view"},{"type":"function","name":"configurePayment","inputs":[{"name":"roundNumber","type":"uint256","internalType":"uint256"},{"name":"paymentType","type":"uint8","internalType":"enum KttyWorldMinting.PaymentType"},{"name":"nativeAmount","type":"uint256","internalType":"uint256"},{"name":"erc20Amount","type":"uint256","internalType":"uint256"}],"outputs":[],"stateMutability":"nonpayable"},{"type":"function","name":"configureRound","inputs":[{"name":"roundNumber","type":"uint256","internalType":"uint256"},{"name":"startTime","type":"uint256","internalType":"uint256"},{"name":"endTime","type":"uint256","internalType":"uint256"}],"outputs":[],"stateMutability":"nonpayable"},{"type":"function","name":"distributeSpilloverToBuckets","inputs":[],"outputs":[],"stateMutability":"nonpayable"},{"type":"function","name":"getAllRounds","inputs":[],"outputs":[{"name":"allRounds","type":"tuple[4]","internalType":"struct KttyWorldMinting.Round[4]","components":[{"name":"startTime","type":"uint256","internalType":"uint256"},{"name":"endTime","type":"uint256","internalType":"uint256"},{"name":"roundType","type":"uint8","internalType":"enum KttyWorldMinting.RoundType"},{"name":"active","type":"bool","internalType":"bool"},{"name":"nativeOnlyPayment","type":"tuple","internalType":"struct KttyWorldMinting.PaymentOption","components":[{"name":"nativeAmount","type":"uint256","internalType":"uint256"},{"name":"erc20Amount","type":"uint256","internalType":"uint256"}]},{"name":"hybridPayment","type":"tuple","internalType":"struct KttyWorldMinting.PaymentOption","components":[{"name":"nativeAmount","type":"uint256","internalType":"uint256"},{"name":"erc20Amount","type":"uint256","internalType":"uint256"}]}]}],"stateMutability":"view"},{"type":"function","name":"getBook","inputs":[{"name":"bookId","type":"uint256","internalType":"uint256"}],"outputs":[{"name":"","type":"tuple","internalType":"struct DummyBooks.Book","components":[{"name":"nftId","type":"uint256","internalType":"uint256"},{"name":"toolIds","type":"uint256[3]","internalType":"uint256[3]"},{"name":"goldenTicketId","type":"uint256","internalType":"uint256"},{"name":"hasGoldenTicket","type":"bool","internalType":"bool"},{"name":"series","type":"string","internalType":"string"}]}],"stateMutability":"view"},{"type":"function","name":"getCurrentRound","inputs":[],"outputs":[{"name":"","type":"uint256","internalType":"uint256"}],"stateMutability":"view"},{"type":"function","name":"getPaymentConfig","inputs":[{"name":"roundNumber","type":"uint256","internalType":"uint256"}],"outputs":[{"name":"nativeOnly","type":"tuple","internalType":"struct KttyWorldMinting.PaymentOption","components":[{"name":"nativeAmount","type":"uint256","internalType":"uint256"},{"name":"erc20Amount","type":"uint256","internalType":"uint256"}]},{"name":"hybrid","type":"tuple","internalType":"struct KttyWorldMinting.PaymentOption","components":[{"name":"nativeAmount","type":"uint256","internalType":"uint256"},{"name":"erc20Amount","type":"uint256","internalType":"uint256"}]}],"stateMutability":"view"},{"type":"function","name":"getPoolAndBucketStatus","inputs":[],"outputs":[{"name":"pool1Length","type":"uint256","internalType":"uint256"},{"name":"pool1Remaining","type":"uint256","internalType":"uint256"},{"name":"pool2Length","type":"uint256","internalType":"uint256"},{"name":"pool2Remaining","type":"uint256","internalType":"uint256"},{"name":"currentBucket","type":"uint256","internalType":"uint256"},{"name":"bucketStats","type":"uint256[2][8]","internalType":"uint256[2][8]"}],"stateMutability":"view"},{"type":"function","name":"getRound","inputs":[{"name":"roundNumber","type":"uint256","internalType":"uint256"}],"outputs":[{"name":"","type":"tuple","internalType":"struct KttyWorldMinting.Round","components":[{"name":"startTime","type":"uint256","internalType":"uint256"},{"name":"endTime","type":"uint256","internalType":"uint256"},{"name":"roundType","type":"uint8","internalType":"enum KttyWorldMinting.RoundType"},{"name":"active","type":"bool","internalType":"bool"},{"name":"nativeOnlyPayment","type":"tuple","internalType":"struct KttyWorldMinting.PaymentOption","components":[{"name":"nativeAmount","type":"uint256","internalType":"uint256"},{"name":"erc20Amount","type":"uint256","internalType":"uint256"}]},{"name":"hybridPayment","type":"tuple","internalType":"struct KttyWorldMinting.PaymentOption","components":[{"name":"nativeAmount","type":"uint256","internalType":"uint256"},{"name":"erc20Amount","type":"uint256","internalType":"uint256"}]}]}],"stateMutability":"view"},{"type":"function","name":"getTopMintersLeaderboard","inputs":[],"outputs":[{"name":"wallets","type":"address[]","internalType":"address[]"},{"name":"mints","type":"uint256[]","internalType":"uint256[]"}],"stateMutability":"view"},{"type":"function","name":"getTotalUniqueMinters","inputs":[],"outputs":[{"name":"","type":"uint256","internalType":"uint256"}],"stateMutability":"view"},{"type":"function","name":"getUserBooks","inputs":[{"name":"user","type":"address","internalType":"address"}],"outputs":[{"name":"","type":"uint256[]","internalType":"uint256[]"}],"stateMutability":"view"},{"type":"function","name":"getUserBooksDetails","inputs":[{"name":"user","type":"address","internalType":"address"}],"outputs":[{"name":"","type":"tuple[]","internalType":"struct DummyBooks.Book[]","components":[{"name":"nftId","type":"uint256","internalType":"uint256"},{"name":"toolIds","type":"uint256[3]","internalType":"uint256[3]"},{"name":"goldenTicketId","type":"uint256","internalType":"uint256"},{"name":"hasGoldenTicket","type":"bool","internalType":"bool"},{"name":"series","type":"string","internalType":"string"}]}],"stateMutability":"view"},{"type":"function","name":"getUserTotalMints","inputs":[{"name":"user","type":"address","internalType":"address"}],"outputs":[{"name":"","type":"uint256","internalType":"uint256"}],"stateMutability":"view"},{"type":"function","name":"getWhitelistStatus","inputs":[{"name":"round","type":"uint256","internalType":"uint256"},{"name":"user","type":"address","internalType":"address"}],"outputs":[{"name":"allowance","type":"uint256","internalType":"uint256"},{"name":"minted","type":"uint256","internalType":"uint256"}],"stateMutability":"view"},{"type":"function","name":"initialize","inputs":[{"name":"_owner","type":"address","internalType":"address"},{"name":"_companions","type":"address","internalType":"address"},{"name":"_tools","type":"address","internalType":"address"},{"name":"_collectibles","type":"address","internalType":"address"},{"name":"_books","type":"address","internalType":"address"},{"name":"_kttyToken","type":"address","internalType":"address"},{"name":"_treasuryWallet","type":"address","internalType":"address"},{"name":"_maxMintPerTransaction","type":"uint256","internalType":"uint256"}],"outputs":[],"stateMutability":"nonpayable"},{"type":"function","name":"isBookOpened","inputs":[{"name":"bookId","type":"uint256","internalType":"uint256"}],"outputs":[{"name":"","type":"bool","internalType":"bool"}],"stateMutability":"view"},{"type":"function","name":"isWhitelistedForRound3","inputs":[{"name":"user","type":"address","internalType":"address"},{"name":"proof","type":"bytes32[]","internalType":"bytes32[]"}],"outputs":[{"name":"","type":"bool","internalType":"bool"}],"stateMutability":"view"},{"type":"function","name":"loadBucket","inputs":[{"name":"bucketIndex","type":"uint256","internalType":"uint256"},{"name":"bookIds","type":"uint256[]","internalType":"uint256[]"},{"name":"nullCount","type":"uint256","internalType":"uint256"},{"name":"oneOfOneCount","type":"uint256","internalType":"uint256"},{"name":"goldenTicketCount","type":"uint256","internalType":"uint256"},{"name":"basicCount","type":"uint256","internalType":"uint256"}],"outputs":[],"stateMutability":"nonpayable"},{"type":"function","name":"loadPool1","inputs":[{"name":"bookIds","type":"uint256[]","internalType":"uint256[]"}],"outputs":[],"stateMutability":"nonpayable"},{"type":"function","name":"loadPool2","inputs":[{"name":"bookIds","type":"uint256[]","internalType":"uint256[]"}],"outputs":[],"stateMutability":"nonpayable"},{"type":"function","name":"manualAirdrop","inputs":[{"name":"tokenIds","type":"uint256[]","internalType":"uint256[]"},{"name":"recipient","type":"address","internalType":"address"}],"outputs":[],"stateMutability":"nonpayable"},{"type":"function","name":"mint","inputs":[{"name":"quantity","type":"uint256","internalType":"uint256"},{"name":"paymentType","type":"uint8","internalType":"enum KttyWorldMinting.PaymentType"},{"name":"merkleProof","type":"bytes32[]","internalType":"bytes32[]"}],"outputs":[],"stateMutability":"payable"},{"type":"function","name":"onERC1155BatchReceived","inputs":[{"name":"","type":"address","internalType":"address"},{"name":"","type":"address","internalType":"address"},{"name":"","type":"uint256[]","internalType":"uint256[]"},{"name":"","type":"uint256[]","internalType":"uint256[]"},{"name":"","type":"bytes","internalType":"bytes"}],"outputs":[{"name":"","type":"bytes4","internalType":"bytes4"}],"stateMutability":"pure"},{"type":"function","name":"onERC1155Received","inputs":[{"name":"","type":"address","internalType":"address"},{"name":"","type":"address","internalType":"address"},{"name":"","type":"uint256","internalType":"uint256"},{"name":"","type":"uint256","internalType":"uint256"},{"name":"","type":"bytes","internalType":"bytes"}],"outputs":[{"name":"","type":"bytes4","internalType":"bytes4"}],"stateMutability":"pure"},{"type":"function","name":"onERC721Received","inputs":[{"name":"","type":"address","internalType":"address"},{"name":"","type":"address","internalType":"address"},{"name":"","type":"uint256","internalType":"uint256"},{"name":"","type":"bytes","internalType":"bytes"}],"outputs":[{"name":"","type":"bytes4","internalType":"bytes4"}],"stateMutability":"pure"},{"type":"function","name":"openBooks","inputs":[{"name":"bookIds","type":"uint256[]","internalType":"uint256[]"}],"outputs":[],"stateMutability":"nonpayable"},{"type":"function","name":"owner","inputs":[],"outputs":[{"name":"","type":"address","internalType":"address"}],"stateMutability":"view"},{"type":"function","name":"proxiableUUID","inputs":[],"outputs":[{"name":"","type":"bytes32","internalType":"bytes32"}],"stateMutability":"view"},{"type":"function","name":"renounceOwnership","inputs":[],"outputs":[],"stateMutability":"nonpayable"},{"type":"function","name":"setMaxMintPerTransaction","inputs":[{"name":"maxMint","type":"uint256","internalType":"uint256"}],"outputs":[],"stateMutability":"nonpayable"},{"type":"function","name":"setRound3MerkleRoot","inputs":[{"name":"merkleRoot","type":"bytes32","internalType":"bytes32"}],"outputs":[],"stateMutability":"nonpayable"},{"type":"function","name":"setTreasuryWallet","inputs":[{"name":"newWallet","type":"address","internalType":"address"}],"outputs":[],"stateMutability":"nonpayable"},{"type":"function","name":"setWhitelistAllowances","inputs":[{"name":"round","type":"uint256","internalType":"uint256"},{"name":"users","type":"address[]","internalType":"address[]"},{"name":"allowances","type":"uint256[]","internalType":"uint256[]"}],"outputs":[],"stateMutability":"nonpayable"},{"type":"function","name":"supportsInterface","inputs":[{"name":"interfaceId","type":"bytes4","internalType":"bytes4"}],"outputs":[{"name":"","type":"bool","internalType":"bool"}],"stateMutability":"view"},{"type":"function","name":"transferOwnership","inputs":[{"name":"newOwner","type":"address","internalType":"address"}],"outputs":[],"stateMutability":"nonpayable"},{"type":"function","name":"upgradeToAndCall","inputs":[{"name":"newImplementation","type":"address","internalType":"address"},{"name":"data","type":"bytes","internalType":"bytes"}],"outputs":[],"stateMutability":"payable"},{"type":"event","name":"BookAdded","inputs":[{"name":"bookId","type":"uint256","indexed":true,"internalType":"uint256"},{"name":"nftId","type":"uint256","indexed":false,"internalType":"uint256"},{"name":"toolIds","type":"uint256[3]","indexed":false,"internalType":"uint256[3]"},{"name":"goldenTicketId","type":"uint256","indexed":false,"internalType":"uint256"}],"anonymous":false},{"type":"event","name":"BookOpened","inputs":[{"name":"bookId","type":"uint256","indexed":true,"internalType":"uint256"},{"name":"owner","type":"address","indexed":true,"internalType":"address"}],"anonymous":false},{"type":"event","name":"BooksMinted","inputs":[{"name":"bookIds","type":"uint256[]","indexed":false,"internalType":"uint256[]"},{"name":"buyer","type":"address","indexed":true,"internalType":"address"}],"anonymous":false},{"type":"event","name":"BucketLoaded","inputs":[{"name":"bucketIndex","type":"uint256","indexed":true,"internalType":"uint256"},{"name":"bookCount","type":"uint256","indexed":false,"internalType":"uint256"}],"anonymous":false},{"type":"event","name":"Initialized","inputs":[{"name":"version","type":"uint64","indexed":false,"internalType":"uint64"}],"anonymous":false},{"type":"event","name":"MinterStatsUpdated","inputs":[{"name":"user","type":"address","indexed":true,"internalType":"address"},{"name":"totalMints","type":"uint256","indexed":false,"internalType":"uint256"}],"anonymous":false},{"type":"event","name":"OwnershipTransferred","inputs":[{"name":"previousOwner","type":"address","indexed":true,"internalType":"address"},{"name":"newOwner","type":"address","indexed":true,"internalType":"address"}],"anonymous":false},{"type":"event","name":"PaymentConfigured","inputs":[{"name":"roundNumber","type":"uint256","indexed":true,"internalType":"uint256"},{"name":"paymentType","type":"uint8","indexed":false,"internalType":"enum KttyWorldMinting.PaymentType"},{"name":"nativeAmount","type":"uint256","indexed":false,"internalType":"uint256"},{"name":"erc20Amount","type":"uint256","indexed":false,"internalType":"uint256"}],"anonymous":false},{"type":"event","name":"PoolLoaded","inputs":[{"name":"poolNumber","type":"uint256","indexed":true,"internalType":"uint256"},{"name":"bookCount","type":"uint256","indexed":false,"internalType":"uint256"}],"anonymous":false},{"type":"event","name":"RoundUpdated","inputs":[{"name":"roundNumber","type":"uint256","indexed":true,"internalType":"uint256"},{"name":"startTime","type":"uint256","indexed":false,"internalType":"uint256"},{"name":"endTime","type":"uint256","indexed":false,"internalType":"uint256"}],"anonymous":false},{"type":"event","name":"SpilloverDistributed","inputs":[{"name":"totalBooksDistributed","type":"uint256","indexed":false,"internalType":"uint256"}],"anonymous":false},{"type":"event","name":"TreasuryWalletUpdated","inputs":[{"name":"newWallet","type":"address","indexed":true,"internalType":"address"}],"anonymous":false},{"type":"event","name":"Upgraded","inputs":[{"name":"implementation","type":"address","indexed":true,"internalType":"address"}],"anonymous":false},{"type":"error","name":"AddressEmptyCode","inputs":[{"name":"target","type":"address","internalType":"address"}]},{"type":"error","name":"BookAlreadyOpened","inputs":[]},{"type":"error","name":"BookNotOwned","inputs":[]},{"type":"error","name":"ERC1967InvalidImplementation","inputs":[{"name":"implementation","type":"address","internalType":"address"}]},{"type":"error","name":"ERC1967NonPayable","inputs":[]},{"type":"error","name":"FailedCall","inputs":[]},{"type":"error","name":"InsufficientAllowance","inputs":[]},{"type":"error","name":"InsufficientPayment","inputs":[]},{"type":"error","name":"InvalidArrayLength","inputs":[]},{"type":"error","name":"InvalidInitialization","inputs":[]},{"type":"error","name":"InvalidPaymentType","inputs":[]},{"type":"error","name":"InvalidProof","inputs":[]},{"type":"error","name":"InvalidRound","inputs":[]},{"type":"error","name":"MaxMintExceeded","inputs":[]},{"type":"error","name":"NotInitializing","inputs":[]},{"type":"error","name":"OwnableInvalidOwner","inputs":[{"name":"owner","type":"address","internalType":"address"}]},{"type":"error","name":"OwnableUnauthorizedAccount","inputs":[{"name":"account","type":"address","internalType":"address"}]},{"type":"error","name":"PoolExhausted","inputs":[]},{"type":"error","name":"ReentrancyGuardReentrantCall","inputs":[]},{"type":"error","name":"RoundNotActive","inputs":[]},{"type":"error","name":"TransferFailed","inputs":[]},{"type":"error","name":"UUPSUnauthorizedCallContext","inputs":[]},{"type":"error","name":"UUPSUnsupportedProxiableUUID","inputs":[{"name":"slot","type":"bytes32","internalType":"bytes32"}]}],"bytecode":{"object":"0x60a08060405234620000d157306080527ff0c57e16840df040f15088dc2f81fe391c3923bec73e23a9662efc9c229c6a009081549060ff8260401c16620000c257506001600160401b036002600160401b0319828216016200007c575b604051613d1f9081620000d68239608051818181611b920152611c760152f35b6001600160401b031990911681179091556040519081527fc7f505b2f371ae2175ee4913f4499e1f2633a7b5936321eed1cdaeb6115181d290602090a15f80806200005c565b63f92ee8a960e01b8152600490fd5b5f80fdfe60806040526004361015610011575f80fd5b5f3560e01c80630177aba7146128ab57806301ffc9a71461283d57806308fd0e51146127ef578063150b7a02146127995780632c547fab146126805780632e52670c146125695780632e6cebe5146125295780632f1d5a8c146122f457806338c80fc3146122585780634559f18d14611e225780634f1ef28614611bfc57806352d1902d14611b8057806368fb42db14611a7757806369afc11114611911578063715018a6146118aa57806374210461146112ff5780637f153e69146112085780638362bede146111945780638725d976146110f95780638830191114610bb75780638da5cb5b14610b835780638f1327c014610b1e578063a32bf59714610afc578063a8602fea14610a85578063ad3cb1cc14610a40578063b1eb5a5014610a14578063b440da2f1461096f578063b5d560aa14610839578063bc197c81146107ae578063c622969814610703578063d705adde14610598578063d8180f0f14610494578063e0ff5b8b146103c2578063e5066bbf146102bc578063f23a6e6114610266578063f2fde38b1461023b578063f98fcec7146101fb5763ffd4b036146101bb575f80fd5b346101f7575f3660031901126101f75760207f7d8c6f4e3a9b5c8f2e1a7d4c9f6e3a0b5c8f2e1a7d4c9f6e3a0b5c8f2e1a7d4d54604051908152f35b5f80fd5b346101f75760203660031901126101f75761021461370f565b6004357f7d8c6f4e3a9b5c8f2e1a7d4c9f6e3a0b5c8f2e1a7d4c9f6e3a0b5c8f2e1a7d4b55005b346101f75760203660031901126101f7576102646102576128cb565b61025f61370f565b61369e565b005b346101f75760a03660031901126101f75761027f6128cb565b506102886128e1565b506084356001600160401b0381116101f7576102a89036906004016128f7565b505060405163f23a6e6160e01b8152602090f35b346101f7575f3660031901126101f75760405160808082018281106001600160401b038211176103ae576040525f5b81811061039957600183815b60048111156103345750604051905f825b600482106103165761040084f35b60206101008261032888948751612b6a565b01930191019091610308565b805f525f80516020613b6a83398151915260205260405f20905f19810191818311610385576103809261036961037a9261355b565b610373828761368d565b528461368d565b506135bc565b6102f7565b634e487b7160e01b5f52601160045260245ffd5b6020906103a46134d8565b81850152016102eb565b634e487b7160e01b5f52604160045260245ffd5b346101f75760203660031901126101f757606060806040516103e38161299d565b5f81526040516103f2816129b8565b8336823760208201525f60408201525f83820152015260245f60018060a01b035f80516020613baa83398151915254166040519283809263e0ff5b8b60e01b825260043560048301525afa801561048957610463915f91610467575b50604051918291602083526020830190612b08565b0390f35b61048391503d805f833e61047b81836129ee565b810190613229565b8261044e565b6040513d5f823e3d90fd5b346101f75760603660031901126101f7576001600160401b036004356024358281116101f7576104c8903690600401612924565b9190926044359081116101f7576104e3903690600401612924565b9390926104ee61370f565b60019460018414158061058d575b61057b578082036101f7575f5b82811061051257005b61051d81838861324e565b3590855f526020917f7d8c6f4e3a9b5c8f2e1a7d4c9f6e3a0b5c8f2e1a7d4c9f6e3a0b5c8f2e1a7d49835260405f2061055783878961324e565b356001600160a01b03811694908590036101f7578a945f525260405f205501610509565b6040516328ad4a9560e21b8152600490fd5b5060028414156104fc565b346101f75760c03660031901126101f7576004356001600160401b036024358181116101f7576105cc903690600401612924565b916105d561370f565b600884101561057b576040519160e0830190838210838311176103ae5761060191604052843691612a26565b8252602090602083015f8152604084015f8152606085019060443582526080860192606435845260a0870194608435865260c088019660a43588526106458b6130c5565b9990996106f0575180519283116103ae57602090610663848c613085565b0190895f5260205f20905f5b8481106106de57508c7f2b8b17e8a131269fdf34c60b6822a764014dfb196354965b1aef09bbaebd545b60208e8e60068f8f8f8f8f8f516001880155600287019051151560ff8019835416911617905551600386015551600485015551600584015551910155604051908152a2005b8351838201559281019260010161066f565b634e487b7160e01b5f525f60045260245ffd5b346101f7576020806003193601126101f7576004355f8260405161072681612967565b82815201525f8260405161073981612967565b8281520152801580156107a4575b61057b57608091815f525f80516020613b6a833981519152808252610771600360405f200161353d565b925f528152610785600560405f200161353d565b8160405193805185520151828401528051604084015201516060820152f35b5060048111610747565b346101f75760a03660031901126101f7576107c76128cb565b506107d06128e1565b506001600160401b036044358181116101f7576107f1903690600401612924565b50506064358181116101f75761080b903690600401612924565b50506084359081116101f7576108259036906004016128f7565b505060405163bc197c8160e01b8152602090f35b346101f75760803660031901126101f75760043560243560028110156101f7576044359060643561086861370f565b83158015610965575b61057b575f90826109085760405161088881612967565b8481526004602082015f8152875f525f80516020613b6a83398151915260205260405f2092516003840155519101555b604051916108f4577f8f341ec4552989b9bb68741eb1b467f541104020a4ec362d766861889b88d4f893606093835260208301526040820152a2005b634e487b7160e01b5f52602160045260245ffd5b5f9150600183036109535760405161091f81612967565b848152600660208201838152875f525f80516020613b6a83398151915260205260405f2092516005840155519101556108b8565b604051630e5525c360e31b8152600490fd5b5060048411610871565b346101f75760403660031901126101f7576109886128cb565b6024356001600160401b0381116101f757602091610a056109b0610a0a933690600401612924565b919092604051868101916001600160601b03199060601b168252601481526109d781612967565b519020927f7d8c6f4e3a9b5c8f2e1a7d4c9f6e3a0b5c8f2e1a7d4c9f6e3a0b5c8f2e1a7d4b5492369161363f565b6137a5565b6040519015158152f35b346101f75760203660031901126101f7576020610a37610a326128cb565b613109565b54604051908152f35b346101f7575f3660031901126101f757610463604051610a5f81612967565b60058152640352e302e360dc1b6020820152604051918291602083526020830190612ae3565b346101f75760203660031901126101f757610a9e6128cb565b610aa661370f565b5f80516020613b0a83398151915280546001600160a01b0319166001600160a01b0383161790556001600160a01b03167f97c79b3848e51f57983ac89e4403452655c8d83ceba8199011de63a74f60d1a75f80a2005b346101f7575f3660031901126101f7576020610b166135ca565b604051908152f35b346101f75760203660031901126101f757600435610b3a6134d8565b5080158015610b79575b61057b575f525f80516020613b6a833981519152602052610100610b6a60405f2061355b565b610b776040518092612b6a565bf35b5060048111610b44565b346101f7575f3660031901126101f7575f80516020613bea833981519152546040516001600160a01b039091168152602090f35b346101f7576101003660031901126101f757610bd16128cb565b610bd96128e1565b906044356001600160a01b03818116918290036101f7576064358181168091036101f7576084358281168091036101f75760a435918383168093036101f75760c4359484861686036101f7575f80516020613caa83398151915254976001600160401b038916801590816110e9575b60011490816110df575b1590816110d6575b506110c457610ca0610db99860016001600160401b03198c16175f80516020613caa8339815191525560ff8b60401c1615611098575b610c98613982565b61025f613982565b610ca8613982565b610cb0613982565b610cb8613982565b60015f80516020613c6a833981519152556001600160601b0360a01b957f7d8c6f4e3a9b5c8f2e1a7d4c9f6e3a0b5c8f2e1a7d4c9f6e3a0b5c8f2e1a7d009116868254161790557f7d8c6f4e3a9b5c8f2e1a7d4c9f6e3a0b5c8f2e1a7d4c9f6e3a0b5c8f2e1a7d0190858254161790557f7d8c6f4e3a9b5c8f2e1a7d4c9f6e3a0b5c8f2e1a7d4c9f6e3a0b5c8f2e1a7d0290848254161790555f80516020613baa83398151915290838254161790557f7d8c6f4e3a9b5c8f2e1a7d4c9f6e3a0b5c8f2e1a7d4c9f6e3a0b5c8f2e1a7d04918254161790555f80516020613b0a8339815191529060018060a01b03166001600160601b0360a01b825416179055565b60e4357f7d8c6f4e3a9b5c8f2e1a7d4c9f6e3a0b5c8f2e1a7d4c9f6e3a0b5c8f2e1a7d06555f7f7d8c6f4e3a9b5c8f2e1a7d4c9f6e3a0b5c8f2e1a7d4c9f6e3a0b5c8f2e1a7d05555f80516020613b2a833981519152600160ff198254161790555f80516020613c4a833981519152600160ff19825416179055604051610e3f81612967565b5f81525f602082015260405190610e5582612967565b5f82525f602083015260405190610e6b82612982565b42825260208201925f19845260408301915f835260016060850152608084015260a08301525f80525f80516020613b6a83398151915260205260405f209282518455516001840155519060048210156108f457600283018054606083015161ff0090151560081b1660ff9490941661ffff19909116179290921790915560069060209060a0908260808201518051600388015501516004860155015180516005850155015191015560015b6004811115610f845760ff8260401c1615610f2d57005b68ff0000000000000000195f80516020613caa83398151915254165f80516020613caa833981519152557fc7f505b2f371ae2175ee4913f4499e1f2633a7b5936321eed1cdaeb6115181d2602060405160018152a1005b60028111611080576001905b604051610f9c81612967565b5f81525f602082015260405192610fb284612967565b5f84525f602085015260405193610fc885612982565b5f855260208501925f8452610fe1604087019384613531565b5f6060870152608086015260a0850152825f525f80516020613b6a83398151915260205260405f2091845183555160018301555160048110156108f457600282018054606086015161ff0090151560081b1660ff9390931661ffff199091161791909117905561107b9260069060209060a090826080820151805160038801550151600486015501518051600585015501519101556135bc565b610f16565b600381036110915760025b90610f90565b600361108b565b68ffffffffffffffffff198b1668010000000000000001175f80516020613caa83398151915255610c90565b60405163f92ee8a960e01b8152600490fd5b9050158a610c5a565b303b159150610c52565b60408b901c60ff16159150610c48565b346101f75760603660031901126101f75760043560243560443561111b61370f565b8215801561118a575b61057b577f717f6028ca251059c1372c3af54bbf4541e12df136c99141422b0d34457b715c91604091845f525f80516020613b6a8339815191526020526002835f208381558260018201550161010061ff001982541617905582519182526020820152a2005b5060048311611124565b346101f7575f3660031901126101f7576111ac61325e565b906040518092604082019060408352835180925260608301916020809501945f5b8281106111e857858061046387878382036020850152612a8f565b86516001600160a01b0316855295810195879550938101936001016111cd565b346101f75760403660031901126101f7576004356001600160401b0381116101f757611238903690600401612924565b906112416128e1565b61124961370f565b5f5b83811061125457005b7f7d8c6f4e3a9b5c8f2e1a7d4c9f6e3a0b5c8f2e1a7d4c9f6e3a0b5c8f2e1a7d00546001600160a01b031661128a82868661324e565b3590803b156101f7576040516323b872dd60e01b81523060048201526001600160a01b038516602482015260448101929092525f908290606490829084905af190816112f0575b506112e8576040516312171d8360e31b8152600490fd5b60010161124b565b6112f990612954565b856112d1565b60603660031901126101f75760043560243560028110156101f7576044356001600160401b0381116101f757611339903690600401612924565b611344939193613747565b81158015611880575b61186e576113596135ca565b938461137157604051633df07da560e01b8152600490fd5b600185148015611864575b15611814575050825f5260207f7d8c6f4e3a9b5c8f2e1a7d4c9f6e3a0b5c8f2e1a7d4c9f6e3a0b5c8f2e1a7d49815260405f20335f52815260405f2054845f527f7d8c6f4e3a9b5c8f2e1a7d4c9f6e3a0b5c8f2e1a7d4c9f6e3a0b5c8f2e1a7d4a9081835260405f20335f52835260405f2054811561180257846113ff91612c02565b1161180257845f52815260405f2090335f525260405f20611421828254612c02565b90555b6040519161143183612967565b5f808452602093840152806117d45750825f525f80516020613b6a8339815191528252611463600360405f200161353d565b61147b8284611473828551613072565b930151613072565b8134106117c257838161170a575b5050806116cd575b803411611696575b506114a381612bc3565b925f5b828110611679575050506114b933613109565b5415905f5b8351811015611546575f80516020613baa833981519152546001600160a01b0316906114ea8186612c0f565b5191803b156101f7576040516323b872dd60e01b815230600482015233602482015260448101939093525f908390606490829084905af191821561048957600192611537575b50016114be565b61154090612954565b85611530565b509190815161155f61155733613109565b918254612c02565b90556115e9575b6115d37ff3ce527104f286770f4fc87d4e89d9f74792ff875bbea7132eefb8339eaf57939161159433613109565b546040519081527f77dc9f4ab140b9972f1d60c3c217ec190c5f7afc24fdc86e2d66f72dfae015e1853392a26040519182918583523395830190612a8f565b0390a260015f80516020613c6a83398151915255005b7f7d8c6f4e3a9b5c8f2e1a7d4c9f6e3a0b5c8f2e1a7d4c9f6e3a0b5c8f2e1a7d4d805491600160401b8310156103ae5760018301808355831015611665575f919091527f061b1021a71fd8d17082e509ad43c6e7896e4ecce26a31975e32ba2385654d1a90910180546001600160a01b03191633179055611566565b634e487b7160e01b5f52603260045260245ffd5b600190611685836137f6565b61168f8288612c0f565b52016114a6565b5f80806116a4819434612bf5565b335af16116af613776565b50156116bb5783611499565b6040516312171d8360e31b8152600490fd5b5f8080808460018060a01b035f80516020613b0a83398151915254165af16116f3613776565b50611491576040516312171d8360e31b8152600490fd5b7f7d8c6f4e3a9b5c8f2e1a7d4c9f6e3a0b5c8f2e1a7d4c9f6e3a0b5c8f2e1a7d04545f80516020613b0a833981519152546040516323b872dd60e01b81523360048201526001600160a01b0391821660248201526044810194909452839160649183915f91165af1908115610489575f9161178d575b50156116bb578483611489565b90508381813d83116117bb575b6117a481836129ee565b810103126101f7576117b590613141565b85611780565b503d61179a565b60405163cd1c886760e01b8152600490fd5b60010361095357825f525f80516020613b6a83398151915282526117fd600560405f200161353d565b611463565b6040516313be252b60e01b8152600490fd5b60038514611824575b5050611424565b61184691610a0560405160208101903360601b8252601481526109d781612967565b1561185257838061181d565b6040516309bde33960e01b8152600490fd5b506002851461137c565b604051633ce95f8560e11b8152600490fd5b507f7d8c6f4e3a9b5c8f2e1a7d4c9f6e3a0b5c8f2e1a7d4c9f6e3a0b5c8f2e1a7d0654821161134d565b346101f7575f3660031901126101f7576118c261370f565b5f80516020613bea83398151915280546001600160a01b031981169091555f906001600160a01b03167f8be0079c531659141344cd1fd0a4f28419497f9722a3daafe3b4186f6b6457e08280a3005b346101f7576020806003193601126101f75761192b6128cb565b5f80516020613baa833981519152546040516369afc11160e01b81526001600160a01b039283166004820152915f9183916024918391165afa908115610489575f916119d1575b506040519082820192808352815180945260408301938160408260051b8601019301915f955b8287106119a55785850386f35b9091929382806119c1600193603f198a82030186528851612b08565b9601920196019592919092611998565b90503d805f833e6119e281836129ee565b810182828203126101f75781516001600160401b03928382116101f7570181601f820112156101f7578051611a1681612a0f565b93611a2460405195866129ee565b818552858086019260051b840101938085116101f757868401925b858410611a525750505050505082611972565b83518381116101f7578891611a6c848480948a010161314e565b815201930192611a3f565b346101f7576020806003193601126101f757611a916128cb565b5f80516020613baa833981519152546040516368fb42db60e01b81526001600160a01b03928316600482015292915f9184916024918391165afa918215610489575f92611aee575b50610463604051928284938452830190612a8f565b9091503d805f833e611b0081836129ee565b81019082818303126101f7578051906001600160401b0382116101f757019080601f830112156101f757815191611b3683612a0f565b92611b4460405194856129ee565b808452848085019160051b8301019283116101f75784809201905b838210611b7157505050509082611ad9565b81518152908201908201611b5f565b346101f7575f3660031901126101f7577f00000000000000000000000000000000000000000000000000000000000000006001600160a01b03163003611bea5760206040517f360894a13ba1a3210667c828492db98dca3e2076cc3735a920a3ca505d382bbc8152f35b60405163703e46dd60e11b8152600490fd5b60403660031901126101f757611c106128cb565b60249081356001600160401b0381116101f757366023820112156101f757806004013591611c3d83612a74565b611c4a60405191826129ee565b83815260209384820193368783830101116101f757815f92888893018737830101526001600160a01b037f00000000000000000000000000000000000000000000000000000000000000008116308114908115611df4575b50611bea57611caf61370f565b6040516352d1902d60e01b8152908316948082600481895afa9182915f93611dc4575b5050611cf057604051634c9c8ce360e01b8152600481018690528690fd5b8490867f360894a13ba1a3210667c828492db98dca3e2076cc3735a920a3ca505d382bbc91828103611daf5750843b15611d99575080546001600160a01b03191682179055604051907fbc7cd75a20ee27fd9adebab32041f755214dbc6bffa90cc0225b39da2e5c2d3b5f80a2815115611d7f57505f6102649381925190845af4611d79613776565b91613aa6565b9250505034611d8a57005b63b398979f60e01b8152600490fd5b604051634c9c8ce360e01b815260048101849052fd5b60405190632a87526960e21b82526004820152fd5b9080929350813d8311611ded575b611ddc81836129ee565b810103126101f75751908780611cd2565b503d611dd2565b9050817f360894a13ba1a3210667c828492db98dca3e2076cc3735a920a3ca505d382bbc5416141587611ca2565b346101f7576020806003193601126101f757600435906001600160401b0382116101f757366023830112156101f757611e676024923690602481600401359101612a26565b90611e70613747565b5f5b825181101561224557611e858184612c0f565b519060018060a01b035f80516020613baa833981519152868583835416604051928380926331a9108f60e11b82528960048301525afa908115610489575f9161220f575b5082339116036121fd57835f527f7d8c6f4e3a9b5c8f2e1a7d4c9f6e3a0b5c8f2e1a7d4c9f6e3a0b5c8f2e1a7d4880865260ff60405f2054166121eb57845f5285528660405f206001908160ff198254161790555f848454166040519384809263e0ff5b8b60e01b82528a60048301525afa918215610489575f926121cf575b507f7d8c6f4e3a9b5c8f2e1a7d4c9f6e3a0b5c8f2e1a7d4c9f6e3a0b5c8f2e1a7d0084815416835190803b156101f7576040516323b872dd60e01b815230600482015233602482015260448101929092525f908290606490829084905af190816121c0575b50611fc5576040516312171d8360e31b8152600490fd5b849054168251813b156101f7575f918b83926040519485938492635a46cf3d60e01b845260048401525af18015610489576121b1575b505f5b600381106121135750506060810151612085575b50541691823b156101f7575f8093876040518096819363c66d208f60e01b83528660048401525af192831561048957600193612076575b5033907fa6bada3e97386c4cb1b5c737f24e46af11bf755bd6d467fde7f4b0e152ec98395f80a301611e72565b61207f90612954565b86612049565b6040837f7d8c6f4e3a9b5c8f2e1a7d4c9f6e3a0b5c8f2e1a7d4c9f6e3a0b5c8f2e1a7d02541691015190803b156101f757604051637921219560e11b815230600482015233602482015260448101929092526001606483015260a060848301525f60a4830181905290829060c490829084905af1801561048957156120125761210d90612954565b87612012565b847f7d8c6f4e3a9b5c8f2e1a7d4c9f6e3a0b5c8f2e1a7d4c9f6e3a0b5c8f2e1a7d01541690888401518160051b015191803b156101f757604051637921219560e11b815230600482015233602482015260448101939093526001606484015260a060848401525f60a4840181905290839060c490829084905af19182156104895783926121a2575b5001611ffe565b6121ab90612954565b8b61219b565b6121ba90612954565b89611ffb565b6121c990612954565b8b611fae565b6121e49192503d805f833e61047b81836129ee565b9089611f49565b6040516360add19160e11b8152600490fd5b604051635318accb60e01b8152600490fd5b90508581813d831161223e575b61222681836129ee565b810103126101f7575182811681036101f75788611ec9565b503d61221c565b60015f80516020613c6a83398151915255005b346101f75760403660031901126101f75760406004356122766128e1565b815f527f7d8c6f4e3a9b5c8f2e1a7d4c9f6e3a0b5c8f2e1a7d4c9f6e3a0b5c8f2e1a7d49602052825f209060018060a01b031690815f52602052825f2054915f527f7d8c6f4e3a9b5c8f2e1a7d4c9f6e3a0b5c8f2e1a7d4c9f6e3a0b5c8f2e1a7d4a602052825f20905f52602052815f205482519182526020820152f35b346101f7575f3660031901126101f7576040516101008082018281106001600160401b038211176103ae576040525f5b81811061250b578260ff9060ff5f80516020613b2a8339815191525416805f146124f6575f80516020613b4a83398151915254925b5f80516020613c4a8339815191525460ff169182156124e1575f80516020613c8a83398151915254905b156124b4575f925b15612487575f905b5f80516020613c0a83398151915254925f5b6008811061241b575050604051958652602093602087015260408601526060850152608084015260a083015f905b600882106123e1576102a085f35b82845182905f915b60028310612405575050506040600192019401910190926123d3565b81518152869360019093019291820191016123e9565b8082600261242a6001946130c5565b5001541615612461575f5b61243f828a6130f8565b515261244a816130c5565b50546020612458838b6130f8565b510152016123a5565b61248261246d826130c5565b505483612479846130c5565b50015490612bf5565b612435565b6124ae5f80516020613c2a833981519152545f80516020613c8a8339815191525490612bf5565b90612393565b6124db5f80516020613cca833981519152545f80516020613b4a8339815191525490612bf5565b9261238b565b5f80516020613c2a8339815191525490612383565b5f80516020613cca8339815191525492612359565b60209060405161251a81612967565b60403682378185015201612324565b346101f75760203660031901126101f75761254261370f565b6004357f7d8c6f4e3a9b5c8f2e1a7d4c9f6e3a0b5c8f2e1a7d4c9f6e3a0b5c8f2e1a7d0655005b346101f7576020806003193601126101f7576001600160401b03906004358281116101f75761259c903690600401612924565b926125a561370f565b83116103ae57600160401b83116103ae575f80516020613c2a833981519152908154848355808510612653575b50905f525f5b8381106126345760027ff46dbf41bb9e0076f09f62efef0de3c3e5c98f866e6a8420a61fc07f01df50c86020865f5f80516020613c8a833981519152555f80516020613c4a83398151915260ff198154169055604051908152a2005b81355f80516020613bca833981519152820155908201906001016125d8565b845f80516020613bca83398151915291820191015b81811061267557506125d2565b5f8155600101612668565b346101f7576020806003193601126101f7576001600160401b03906004358281116101f7576126b3903690600401612924565b9190926126be61370f565b82116103ae57600160401b82116103ae576001925f80516020613cca83398151915290815484835580851061276d575b50905f525f5b83811061274f57847ff46dbf41bb9e0076f09f62efef0de3c3e5c98f866e6a8420a61fc07f01df50c86020865f5f80516020613b4a833981519152555f80516020613b2a83398151915260ff198154169055604051908152a2005b81355f80516020613b8a8339815191528201559082019084016126f4565b845f80516020613b8a83398151915291820191015b81811061278f57506126ee565b5f81558601612782565b346101f75760803660031901126101f7576127b26128cb565b506127bb6128e1565b506064356001600160401b0381116101f7576127db9036906004016128f7565b5050604051630a85bd0160e11b8152602090f35b346101f75760203660031901126101f7576004355f527f7d8c6f4e3a9b5c8f2e1a7d4c9f6e3a0b5c8f2e1a7d4c9f6e3a0b5c8f2e1a7d48602052602060ff60405f2054166040519015158152f35b346101f75760203660031901126101f75760043563ffffffff60e01b81168091036101f757602090630271189760e51b811490811561289a575b8115612889575b506040519015158152f35b6301ffc9a760e01b1490508261287e565b630a85bd0160e11b81149150612877565b346101f7575f3660031901126101f7576128c361370f565b610264612c38565b600435906001600160a01b03821682036101f757565b602435906001600160a01b03821682036101f757565b9181601f840112156101f7578235916001600160401b0383116101f757602083818601950101116101f757565b9181601f840112156101f7578235916001600160401b0383116101f7576020808501948460051b0101116101f757565b6001600160401b0381116103ae57604052565b604081019081106001600160401b038211176103ae57604052565b60c081019081106001600160401b038211176103ae57604052565b60a081019081106001600160401b038211176103ae57604052565b606081019081106001600160401b038211176103ae57604052565b602081019081106001600160401b038211176103ae57604052565b90601f801991011681019081106001600160401b038211176103ae57604052565b6001600160401b0381116103ae5760051b60200190565b9291612a3182612a0f565b91612a3f60405193846129ee565b829481845260208094019160051b81019283116101f757905b828210612a655750505050565b81358152908301908301612a58565b6001600160401b0381116103ae57601f01601f191660200190565b9081518082526020808093019301915f5b828110612aae575050505090565b835185529381019392810192600101612aa0565b5f5b838110612ad35750505f910152565b8181015183820152602001612ac4565b90602091612afc81518092818552858086019101612ac2565b601f01601f1916010190565b80518252602080820151905f8185015b60038210612b5557505050509060e06080836040612b52950151828501526060810151151560a08501520151918160c08201520190612ae3565b90565b82806001928651815201940191019092612b18565b805182526020810151602083015260408101519060048210156108f45760a060209160e0936040860152606081015115156060860152826080820151805160808801520151828601520151805160c08501520151910152565b90612bcd82612a0f565b612bda60405191826129ee565b8281528092612beb601f1991612a0f565b0190602036910137565b9190820391821161038557565b9190820180921161038557565b80518210156116655760209160051b010190565b8054821015611665575f5260205f2001905f90565b60408051612c45816129d3565b5f81525f368137905f915f80516020613b2a83398151915280549060ff8216158061304d575b612fb9575b50505f80516020613c4a83398151915280549060ff82161580612f94575b612ebd575b50508215612eb8576003918360031c9160078516905f905f5b60088110612ce8575050505050505060207f87b27d2db832ebca3d4fb12bf8950a814397be2fe04541fe2ba6068284320cda91604051908152a1565b85848210612e97575b80612d00575b50600101612cac565b9092612d0b846130c5565b50805490612d198483612c02565b612d2281612bc3565b925f5b818110612e735750505f606033811b915b878110612d9b57505050508151916001600160401b0383116103ae57612d5c8383613085565b6020809101915f52805f20905f5b848110612d89575050505050600191612d8291612c02565b9290612cf7565b83518382015592810192600101612d6a565b612dae612da88289612c02565b8a612c0f565b51612dc282612dbd8b88612bf5565b612c02565b60018101809111610385578d8051602081019142835244908201528d868201528460808201528660a082015260948152612dfb81612982565b5190208115612e5f5706612e1383612dbd8c89612bf5565b818111612e30575090612e296001939289612c0f565b5201612d36565b5f19810181811161038557612e45908a612c0f565b51612e50828b612c0f565b528015610385575f1901612e13565b634e487b7160e01b5f52601260045260245ffd5b808d612e8160019387612c23565b9054911b1c612e908288612c0f565b5201612d25565b506001860180871115612cf157634e487b7160e01b5f52601160045260245ffd5b505050565b9093915f80516020613c2a8339815191529081545f80516020613c8a83398151915254612eea8183612bf5565b93612efd612ef88689612c02565b612bc3565b935f5b888110612f755750505f5b858110612f325750505050600191612f239194612c02565b9460ff19161790555f80612c93565b612f3c8184612c02565b908482101561166557600191835f525f80516020613bca8339815191520154612f6e612f68838c612c02565b88612c0f565b5201612f0b565b80612f8260019284612c0f565b51612f8d8289612c0f565b5201612f00565b505f80516020613c8a833981519152545f80516020613c2a8339815191525411612c8e565b915092505f80516020613cca8339815191529081545f80516020613b4a8339815191525492612fe88483612bf5565b93612ff285612bc3565b925f5b868110613013575050505060ff199094166001179055915f80612c70565b61301d8184612c02565b908282101561166557600191855f525f80516020613b8a83398151915201546130468288612c0f565b5201612ff5565b505f80516020613b4a833981519152545f80516020613cca8339815191525411612c6b565b8181029291811591840414171561038557565b90600160401b81116103ae578154918181558282106130a357505050565b5f5260205f2091820191015b8181106130ba575050565b5f81556001016130af565b6008811015611665576007027f7d8c6f4e3a9b5c8f2e1a7d4c9f6e3a0b5c8f2e1a7d4c9f6e3a0b5c8f2e1a7d0f01905f90565b9060088110156116655760051b0190565b6001600160a01b03165f9081527f7d8c6f4e3a9b5c8f2e1a7d4c9f6e3a0b5c8f2e1a7d4c9f6e3a0b5c8f2e1a7d4c6020526040902090565b519081151582036101f757565b919060e0838203126101f757604051926131678461299d565b838151815260209183603f820112156101f757604051613186816129b8565b8060808301918683116101f75785808501915b848310613219575090508401525160408301526131b860a08201613141565b606083015260c0810151906001600160401b0382116101f757019183601f840112156101f75782516131e981612a74565b946131f760405196876129ee565b8186528282860101116101f757608093826132159387019101612ac2565b0152565b8251815291810191879101613199565b906020828203126101f75781516001600160401b0381116101f757612b52920161314e565b91908110156116655760051b0190565b7f7d8c6f4e3a9b5c8f2e1a7d4c9f6e3a0b5c8f2e1a7d4c9f6e3a0b5c8f2e1a7d4d90815480156134ae5760328111156134a85760325b61329d81612bc3565b916132a782612bc3565b946040518080928483526020809301905f527f061b1021a71fd8d17082e509ad43c6e7896e4ecce26a31975e32ba2385654d1a925f5b8681106134885750506132f2925003826129ee565b6132fb82612bc3565b915f5b81811061345757505f5b8481106133185750505050509190565b806001808301808411610385575b8481106133de57505090818160019303613375575b50818060a01b0361334c8286612c0f565b51166133588289612c0f565b526133638186612c0f565b5161336e828b612c0f565b5201613308565b828060a01b03806133868388612c0f565b5116906133938488612c0f565b511661339f8388612c0f565b526133aa8387612c0f565b526133b58187612c0f565b51906133cc6133c48489612c0f565b519188612c0f565b526133d78287612c0f565b525f61333b565b6133e88188612c0f565b516133f38489612c0f565b51108015613410575b613408575b8101613326565b915081613401565b5061341b8188612c0f565b516134268489612c0f565b511480156133fc57506001600160a01b03806134428389612c0f565b51169061344f8589612c0f565b5116116133fc565b6001906134766001600160a01b0361346f8387612c0f565b5116613109565b546134818287612c0f565b52016132fe565b84546001600160a01b0316835260019485019486945092820192016132dd565b80613294565b5060405191506134bd826129d3565b5f8252604051916134cd836129d3565b5f83525f3681379190565b604051906134e582612982565b815f81525f60208201525f60408201525f606082015260405161350781612967565b5f81525f6020820152608082015260a06040519161352483612967565b5f83525f60208401520152565b60048210156108f45752565b9060405161354a81612967565b602060018294805484520154910152565b9060405161356881612982565b60a06135b760058395805485526001810154602086015260ff600282015461359582821660408901613531565b60081c16151560608601526135ac6003820161353d565b60808601520161353d565b910152565b5f1981146103855760010190565b60015b60048111156135db57505f90565b805f5260205f80516020613b6a83398151915281526135fc60405f2061355b565b90606082015115159182613633575b82613625575b5050612b5257613620906135bc565b6135cd565b015142111590505f80613611565b8051421015925061360b565b929161364a82612a0f565b9161365860405193846129ee565b829481845260208094019160051b81019283116101f757905b82821061367e5750505050565b81358152908301908301613671565b9060048110156116655760051b0190565b6001600160a01b039081169081156136f7575f80516020613bea83398151915280546001600160a01b031981168417909155167f8be0079c531659141344cd1fd0a4f28419497f9722a3daafe3b4186f6b6457e05f80a3565b604051631e4fbdf760e01b81525f6004820152602490fd5b5f80516020613bea833981519152546001600160a01b0316330361372f57565b60405163118cdaa760e01b8152336004820152602490fd5b5f80516020613c6a83398151915260028154146137645760029055565b604051633ee5aeb560e01b8152600490fd5b3d156137a0573d9061378782612a74565b9161379560405193846129ee565b82523d5f602084013e565b606090565b929091905f915b84518310156137ee576137bf8386612c0f565b5190818110156137dd575f52602052600160405f205b9201916137ac565b905f52602052600160405f206137d5565b915092501490565b600181036138b957505f80516020613b2a83398151915280549060ff82168015613893575b613881575f80516020613b4a833981519152918254925f80516020613cca8339815191529081549182861015611665575f52613867855f80516020613b8a8339815191520154956135bc565b809155101561387557505090565b60ff1916600117905590565b6040516311a7ebfd60e31b8152600490fd5b505f80516020613b4a833981519152545f80516020613cca83398151915254111561381b565b6002810361395057505f80516020613c4a83398151915280549060ff8216801561392a575b613881575f80516020613c8a833981519152918254925f80516020613c2a8339815191529081549182861015611665575f52613867855f80516020613bca8339815191520154956135bc565b505f80516020613c8a833981519152545f80516020613c2a8339815191525411156138de565b600381036139615750612b526139b0565b60041461397a576040516311a7ebfd60e31b8152600490fd5b612b526139b0565b60ff5f80516020613caa8339815191525460401c161561399e57565b604051631afcd79f60e31b8152600490fd5b5f80516020613c0a833981519152546008811080613a89575b156139f0576139da6139eb916135bc565b5f80516020613c0a83398151915255565b6139b0565b505f80516020613c0a8339815191528054600881101561388157613a13906130c5565b506001810191825482541115613a675750815491613a47613a41613a378585612c23565b90549060031b1c90565b936135bc565b80915581541115613a56575090565b600201805460ff1916600117905590565b61397a9250613a8360026139da9301600160ff19825416179055565b546135bc565b50613aa16002613a98836130c5565b50015460ff1690565b6139c9565b90613acd5750805115613abb57602081519101fd5b60405163d6bda27560e01b8152600490fd5b81511580613b00575b613ade575090565b604051639996b31560e01b81526001600160a01b039091166004820152602490fd5b50803b15613ad656fe7d8c6f4e3a9b5c8f2e1a7d4c9f6e3a0b5c8f2e1a7d4c9f6e3a0b5c8f2e1a7d077d8c6f4e3a9b5c8f2e1a7d4c9f6e3a0b5c8f2e1a7d4c9f6e3a0b5c8f2e1a7d0b7d8c6f4e3a9b5c8f2e1a7d4c9f6e3a0b5c8f2e1a7d4c9f6e3a0b5c8f2e1a7d0a7d8c6f4e3a9b5c8f2e1a7d4c9f6e3a0b5c8f2e1a7d4c9f6e3a0b5c8f2e1a7d08f323402854b7914f648b3f8f752f9617cb0142a8bb0a7485e2dcdfeaec0f7ce67d8c6f4e3a9b5c8f2e1a7d4c9f6e3a0b5c8f2e1a7d4c9f6e3a0b5c8f2e1a7d037e9df656e3c042488461d71a6b582b0bcc19715887be7cec14181d846b61ee649016d09d72d40fdae2fd8ceac6b6234c7706214fd39c1cd1e609a0528c1993007d8c6f4e3a9b5c8f2e1a7d4c9f6e3a0b5c8f2e1a7d4c9f6e3a0b5c8f2e1a7d477d8c6f4e3a9b5c8f2e1a7d4c9f6e3a0b5c8f2e1a7d4c9f6e3a0b5c8f2e1a7d0c7d8c6f4e3a9b5c8f2e1a7d4c9f6e3a0b5c8f2e1a7d4c9f6e3a0b5c8f2e1a7d0e9b779b17422d0df92223018b32b4d1fa46e071723d6817e2486d003becc55f007d8c6f4e3a9b5c8f2e1a7d4c9f6e3a0b5c8f2e1a7d4c9f6e3a0b5c8f2e1a7d0df0c57e16840df040f15088dc2f81fe391c3923bec73e23a9662efc9c229c6a007d8c6f4e3a9b5c8f2e1a7d4c9f6e3a0b5c8f2e1a7d4c9f6e3a0b5c8f2e1a7d09a2646970667358221220544370ee6133fc3bfd37c5e4521667b9bd7a820402c8eb4fb63516d91d9164f064736f6c63430008160033","linkReferences":{}},"methodIdentifiers":{"UPGRADE_INTERFACE_VERSION()":"ad3cb1cc","configurePayment(uint256,uint8,uint256,uint256)":"b5d560aa","configureRound(uint256,uint256,uint256)":"8725d976","distributeSpilloverToBuckets()":"0177aba7","getAllRounds()":"e5066bbf","getBook(uint256)":"e0ff5b8b","getCurrentRound()":"a32bf597","getPaymentConfig(uint256)":"c6229698","getPoolAndBucketStatus()":"2f1d5a8c","getRound(uint256)":"8f1327c0","getTopMintersLeaderboard()":"8362bede","getTotalUniqueMinters()":"ffd4b036","getUserBooks(address)":"68fb42db","getUserBooksDetails(address)":"69afc111","getUserTotalMints(address)":"b1eb5a50","getWhitelistStatus(uint256,address)":"38c80fc3","initialize(address,address,address,address,address,address,address,uint256)":"88301911","isBookOpened(uint256)":"08fd0e51","isWhitelistedForRound3(address,bytes32[])":"b440da2f","loadBucket(uint256,uint256[],uint256,uint256,uint256,uint256)":"d705adde","loadPool1(uint256[])":"2c547fab","loadPool2(uint256[])":"2e52670c","manualAirdrop(uint256[],address)":"7f153e69","mint(uint256,uint8,bytes32[])":"74210461","onERC1155BatchReceived(address,address,uint256[],uint256[],bytes)":"bc197c81","onERC1155Received(address,address,uint256,uint256,bytes)":"f23a6e61","onERC721Received(address,address,uint256,bytes)":"150b7a02","openBooks(uint256[])":"4559f18d","owner()":"8da5cb5b","proxiableUUID()":"52d1902d","renounceOwnership()":"715018a6","setMaxMintPerTransaction(uint256)":"2e6cebe5","setRound3MerkleRoot(bytes32)":"f98fcec7","setTreasuryWallet(address)":"a8602fea","setWhitelistAllowances(uint256,address[],uint256[])":"d8180f0f","supportsInterface(bytes4)":"01ffc9a7","transferOwnership(address)":"f2fde38b","upgradeToAndCall(address,bytes)":"4f1ef286"},"id":63}